:100000000C9459010C948A010C948A010C948A0175
:100010000C948A010C948A010C948A010C948A0134
:100020000C948A010C948A010C948A010C948A0124
:100030000C948A010C948A010C948A010C948A0114
:100040000C948A010C948A010C948A010C948A0104
:100050000C948A010C948A010C948A010C94A30BD1
:100060000C948A010C94170C0C94ED0B0C948A01DF
:100070000C948A010C948A010C948A010C948A01D4
:100080000C948A010C948A010C948A010C948A01C4
:100090000C948A010C948A010C948A010C948A01B4
:1000A0000C948A010C948A010C948A010C948A01A4
:1000B0000C948A010C948A010C948A010C948A0194
:1000C0000C948A010C948A010C948A010C948A0184
:1000D0000C948A010C948A010C948A010C948A0174
:1000E0000C948A010C94B0010C948E030C94C901F9
:1000F0000C9441030C94D8020C94B4010C94E501C7
:100100000C94CF010C94D3010C94AA010C94C5015A
:100110000C94BC010C94E1010C944D0C0C94B801AE
:100120000C94D7010C94DD010C94BF010C94EB01ED
:100130000C94EF010C94EA010C9409030C94FB025B
:100140000C94AB020C94E702CDCCCC3D0AD7233CF7
:1001500017B7D13877CC2B329595E6241FB14F0ACB
:100160000000803FCDCCCC3D6F12833A95BFD63393
:100170007D1D9026B3CE010C000020410000C84236
:1001800000401C4620BCBE4CCA1B0E5AAEC59D7416
:1001900000002100240027002A002D003000330039
:1001A00001010000040107010A01000022002500EE
:1001B00028002B002E003100340002010000050150
:1001C00008010B01000020002300260029002C005C
:1001D0002F0032000001000003010601090105059E
:1001E0000505070508080808020202020A0A0808AD
:1001F00004040404010101010101010103030303DB
:1002000003030303040707070C0C0C0C0C0C0C0C69
:100210000202020206060606060606060B0B0B0B7A
:100220000B0B0B0B0102102020080810204010209F
:1002300040800201020108040201010204081020AA
:1002400040808040201008040201800402018040A8
:100250002010080402010804020101020408102011
:100260004080010204081020408000000A0B0209AF
:100270000C0D0E0807030401000000000000000040
:10028000000000000000000000000000000000006E
:10029000000000000000121110000000000000002B
:1002A000000000000000000000000000000000004E
:1002B0004D0C11241FBECFEFD1E2DEBFCDBF00E059
:1002C0000CBF12E0A0E0B2E0ECE1FFE100E00BBF08
:1002D00002C007900D92A437B107D9F723E0A4E735
:1002E000B2E001C01D92AB32B207E1F711E0C9E5FF
:1002F000D1E000E006C021970109802FFE010E9495
:10030000D30EC835D10780E00807A9F70E94A90CD1
:100310000C948C0F0C9400008150823108F05AC06C
:10032000E82FF0E08827E856FE4F8F4F0C94D30E4D
:10033000B801BC01AA01B001B401EA01BF01C501C5
:10034000C901CF01D301D701DD01E101EA01E501D6
:10035000EB01EF01809180008F77809380000895FA
:10036000809180008F7DF9CF80918000877FF5CFCD
:1003700084B58F7784BD089584B58F7DFBCF809140
:10038000B0008F778093B00008958091B0008F7D8A
:10039000F9CF809190008F7780939000089580919D
:1003A00090008F7DF9CF80919000877FF5CF80916D
:1003B000A0008F778093A00008958091A0008F7D8A
:1003C000F9CF8091A000877FF5CF809120018F77B2
:1003D000809320010895809120018F7DF9CF809135
:1003E0002001877FF5CFCF93DF93282F30E0F901ED
:1003F000E659FD4F8491F901EC5DFD4FD491F9016F
:10040000E252FE4FC491CC23A1F081110E948C01D5
:10041000EC2FF0E0EE0FFF1FEC53FE4FA591B491CF
:10042000EC91ED2381E090E009F480E0DF91CF9141
:10043000089580E090E0FACF1F93CF93DF93282FA9
:1004400030E0F901E659FD4F8491F901EC5DFD4F73
:10045000D491F901E252FE4FC491CC23A9F0162F9A
:1004600081110E948C01EC2FF0E0EE0FFF1FE6558A
:10047000FE4FA591B4918FB7F894EC91111108C07B
:10048000D095DE23DC938FBFDF91CF911F9108952C
:10049000DE2BF8CFCF93DF9390E0FC01EC5DFD4FB6
:1004A000249182529E4FFC0184918823C9F090E0F0
:1004B000880F991FFC01E057FE4FA591B491FC01F4
:1004C000E655FE4FC591D49161110DC09FB7F894C8
:1004D0008C91209582238C938881282328839FBF29
:1004E000DF91CF910895623051F49FB7F8943C9119
:1004F000822F809583238C93E8812E2BEFCF8FB7AB
:10050000F894EC912E2B2C938FBFEACF3FB7F89441
:1005100080917B0290917C02A0917D02B0917E023D
:1005200026B5A89B05C02F3F19F00196A11DB11D4E
:100530003FBFBA2FA92F982F8827BC01CD01620F8A
:10054000711D811D911D42E0660F771F881F991F45
:100550004A95D1F70895AF92BF92CF92DF92EF9272
:10056000FF920F931F93CF93DF936C017B018B015D
:10057000040F151FEB015E01AE18BF08C017D107AD
:1005800059F06991D601ED91FC910190F081E02D37
:10059000C6011995892B79F7C501DF91CF911F917C
:1005A0000F91FF90EF90DF90CF90BF90AF900895A4
:1005B000FC01538D448D252F30E0842F90E0821B69
:1005C000930B541710F0CF96089501970895FC01EE
:1005D000918D828D981761F0A28DAE0FBF2FB11D46
:1005E0005D968C91928D9F5F9F73928F90E008959E
:1005F0008FEF9FEF0895FC01918D828D981731F058
:10060000828DE80FF11D858D90E008958FEF9FEFAB
:100610000895FC01918D228D892F90E0805C9F4F81
:10062000821B91098F73992708958FE792E00E94AA
:10063000090321E0892B09F420E0822F0895FC01B1
:10064000A48DA80FB92FB11DA35ABF4F2C91848D33
:1006500090E001968F739927848FA689B7892C9390
:10066000A089B1898C91837080648C93938D848DE3
:10067000981306C00288F389E02D80818F7D8083E6
:100680000895EF92FF920F931F93CF93DF93EC01A6
:1006900081E0888F9B8D8C8D98131AC0E889F98929
:1006A000808185FF15C09FB7F894EE89FF8960832C
:1006B000E889F98980818370806480839FBF81E0AD
:1006C00090E0DF91CF911F910F91FF90EF900895EF
:1006D000F62E0B8D10E00F5F1F4F0F731127E02ECA
:1006E0008C8D8E110CC00FB607FCFACFE889F98902
:1006F000808185FFF5CFCE010E941F03F1CFEB8DE6
:10070000EC0FFD2FF11DE35AFF4FF0829FB7F894D5
:100710000B8FEA89FB8980818062CFCFCF93DF93F3
:10072000EC01888D8823B9F0AA89BB89E889F98909
:100730008C9185FD03C0808186FD0DC00FB607FC3E
:10074000F7CF8C9185FFF2CF808185FFEDCFCE0171
:100750000E941F03E9CFDF91CF91089581E080933C
:10076000750208950E941503882319F081E0809393
:10077000750280E090E0892B49F080E090E0892BC1
:1007800029F00E94000081110E94000080E090E0AA
:10079000892B49F080E090E0892B29F00E9400002D
:1007A00081110E94000080E090E0892B49F080E0F8
:1007B00090E0892B29F00E94000081110C94000028
:1007C000089508959C01FB01309761F09481907821
:1007D0009A609483C901330FAA0BBB0B808391836A
:1007E000A283B3830895CF93DF93EC01888199812D
:1007F000DC01ED91FC910190F081E02D19952A81A9
:100800003B81820F931F9B838A83DF91CF91089551
:10081000CF93DF93EC0188819981DC01ED91FC910C
:100820000280F381E02D19952A813B81820F931F6D
:100830009B838A83DF91CF9108958F929F92AF928D
:10084000BF92CF92DF92EF92FF920F931F93CF93BD
:10085000DF93CDB7DEB766970FB6F894DEBF0FBE55
:10086000CDBF6C018E01095E1F4F78018AE0882E92
:10087000912CA12CB12CCB01BA01A50194010E94AD
:100880008E0E942F852F605DF80162938F01A90170
:10089000692F782F411551056105710561F7A70191
:1008A0004E1B5F0BBF01C6010E94080466960FB67F
:1008B000F894DEBF0FBECDBFDF91CF911F910F9196
:1008C000FF90EF90DF90CF90BF90AF909F908F9070
:1008D00008954F925F926F927F928F929F92AF9204
:1008E000BF92DF92EF92FF920F931F93CF93DF930C
:1008F00000D01F921F92CDB7DEB7FC01892B39F0D3
:1009000084818F778630C1F028F48430D8F590E068
:1009100080E014C08A3039F18C3009F476C1883017
:10092000B1F780819181A281B381811520E892077E
:10093000A105B10560F702C0808190E00F900F9093
:100940000F900F900F90DF91CF911F910F91FF901B
:10095000EF90DF90BF90AF909F908F907F906F90BF
:100960005F904F90089580819181A281B381AC0105
:10097000BD0150586F4F7F4F4115510561407105C2
:1009800030F6DCCF0190F081E02D1D8280818B322A
:10099000D1F18D32C9F53196EE24E394808190ED4A
:1009A000980F9A3018F08E3209F05DC08F0160E028
:1009B00070E0CB01F8012191A0ED8A2E820E49E072
:1009C000481520F16A3959E97507850759E19507F6
:1009D00038F5AAE0B0E09B01AC010E94830E912C97
:1009E000B12CA12C24013501409450946094709452
:1009F000461657066806790698F0680D791D8A1D17
:100A00009B1D8F01D7CF3196E12CC8CF211108C093
:100A1000EE2071F1613071058105A0E89A07A0F020
:100A2000F12CEAE08E2E912CA12CB12C61157105D0
:100A300030E88307910518F1A50194010E948E0EFC
:100A4000CA01B901F394F2CF2AE02D839B01AC01D6
:100A500088279927DC01821B930BA40BB50B898394
:100A60009A83AB83BC83CE0101960E94690466CF52
:100A700028E02D8369837A838B839C83F4CFF801EC
:100A8000D8012D918D0130ED320F3A3010F4F394EE
:100A9000F6CF2E3201F58F010F5F1F4FF8010F5F68
:100AA0001F4F208150EDD52ED20EB9E0BD1598F024
:100AB0006C3C2CEC72072CE08207910578F7AAE0D9
:100AC000B0E09B01AC010E94830E6D0D711D811D74
:100AD000911DFA94E3CF20812F7D10E000E02534B2
:100AE00009F050C021812D32B1F53296BB24B39468
:100AF000DF0110E000E02F2D0F2C000C330B4AE03B
:100B0000A42EFD01DD9040ED4D0D4A30B0F5A09EC4
:100B1000A001A19E500D11240D2DDD0C110B0053D1
:100B20001109040F151FA801420F531F4732510529
:100B300044F3BB20B9F080E090E0A0E0B0E8E11021
:100B400003C080E090E0DC012CE02D8389839A8350
:100B5000AB83BC8388CF2B3219F03196B12CC8CF30
:100B60003296FCCF80E090E0A0E8BFEFE110ECCF40
:100B700080E090E0A0E8BFE7E7CFBB2019F0119537
:100B800001951109208121116ECF0F0D111DF7FC68
:100B90001A950E94640D10161106F4F4F12C00FF52
:100BA0000CC034E0F39EF0011124E858FE4F25916B
:100BB0003591459154910E94C50D15950795F39473
:100BC0000115110561F7E11090582CE02D83698320
:100BD0007A838B839C8347CF119501951109F12C62
:100BE0000115110581F300FF0CC044E0F49EF001F3
:100BF0001124E85BFE4F25913591459154910E9457
:100C0000C50D15950795F394EBCF80809180A28058
:100C1000B38020E030E040E057ECC501B4010E9411
:100C20007E0F87FD74CE20E03EEF4FEF56E4C50106
:100C3000B4010E945F0D18160CF469CEC501B40111
:100C40000E94480FCB017ACEFC012581222339F086
:100C5000F8E02F0290011124820F931F089590E075
:100C600080E008950F931F93CF93DF93D0E0C0E00F
:100C70006115710591F08B01FC01C081D181209734
:100C800061F06E817F81C8010E94830F892B29F05A
:100C9000CE010E942406EC01F2CFCE01DF91CF916C
:100CA0001F910F910895EF92FF920F931F93CF938F
:100CB000DF93FC018481982F9F7739F480788062DC
:100CC00084831182108213821282848185FD09C07F
:100CD00080E090E0DF91CF911F910F91FF90EF9016
:100CE000089561157105A1F3EA017B018F01CF0120
:100CF0000E943206009771F7EC81FD818A819B8109
:100D00000896E817F90718F481E08887E1CF38974B
:100D1000FD83EC833097E1F2E801AA81BB81109753
:100D200091F0CF018A1B9B0B23E0959587952A951F
:100D3000E1F715968C93FB83EA8315821482F78280
:100D4000E682CF01C7CFF983E883FB83EA83F5CF3F
:100D5000FC01248125FD0C94320690E080E008958A
:100D60008F929F92AF92BF92CF92DF92EF92FF92BB
:100D7000CF93DF93FC01EB018081918162817381CC
:100D800009960E94A806FC01892B49F094819F775F
:100D9000983009F44EC030F4963009F45DC030E06C
:100DA00020E022C09A3081F19C30C9F7C080D18008
:100DB000E280F380BE01DD0F880B990B0E94660D67
:100DC0004B015C01AC019B01C701B6010E945F0DA4
:100DD00087FD47C0A5019401C701B6010E947E0F9F
:100DE000181624F522E030E081E02130310509F4C5
:100DF00080E0DF91CF91FF90EF90DF90CF90BF9098
:100E0000AF909F908F90089540815181628173814E
:100E1000CE01DD0FAA0BBB0B481759076A077B07EA
:100E200004F184179507A607B707E4F221E030E044
:100E3000DBCF4081518162817381CE01DD0FAA0B2E
:100E4000BB0B481759076A077B0758F084179507AB
:100E5000A607B70758F7C6CF408150E070E060E0C2
:100E6000ECCF24E030E0C0CFFB0101900020E9F797
:100E70003197AF01461B570B0C9408041F93CF9377
:100E8000DF93ECE1F2E01281112379F032962181B7
:100E90006213F9CFEC016CE50E94F303612FCE01E0
:100EA000DF91CF911F910C94F3036111F9CF6DE2A3
:100EB00072E0DF91CF911F910C9434072F923F92F3
:100EC0004F925F926F927F928F929F92AF92BF925A
:100ED000CF92DF92EF92FF920F931F93CF93DF9306
:100EE000CDB7DEB76C970FB6F894DEBF0FBECDBF9F
:100EF0008C011B01DC0114968C9114978F7786303E
:100F000009F492C268F58230A0F11296ED90FC903F
:100F10001397CC901196DC90843008F056C2A7014C
:100F2000B601C1010E940804F101828193816C968F
:100F30000FB6F894DEBF0FBECDBFDF91CF911F91EA
:100F40000F91FF90EF90DF90CF90BF90AF909F9068
:100F50008F907F906F905F904F903F902F9008956B
:100F60008C3069F160F4883009F459C28A3009F490
:100F70003FC264E372E0C1010E943407E5C18032E0
:100F800009F4ECC18034A9F76BE5C1010E94F303B9
:100F9000F801008111810115110509F4DAC1B101CF
:100FA000C8010E945E07C8010E9424068C01892B9B
:100FB00009F4CFC16CE2C1010E94F303ECCFF80148
:100FC000C080D180E280F380A7019601C701B601FD
:100FD0000E945F0D8111CDCF20E030E0A901C70153
:100FE000B6010E945F0D882379F0A7019601C70121
:100FF000B6010E94DC0E9B01AC01C701B6010E9444
:101000005F0D882309F4B5CF20E030E0A901C701C6
:10101000B6010E945F0D87FF08C06DE2C1010E940A
:10102000F303F7FAF094F7F8F09420E836E948E192
:101030005BE4C701B6010E947E0F87FD81C074E1A9
:10104000A72EB12C00E210E0188E1F8AF501E85897
:10105000FE4F2591359145915491C701B6010E94EB
:101060007E0F87FD13C0F501E85BFE4F259135919A
:1010700045915491C701B6010E94C50D6B017C01D9
:101080002F89388D200F311F388F2F8B159507959D
:1010900034E0A31AB1088CEFA8168FEFB806B1F6AA
:1010A00055245A9420E030E0A901C701B6010E94FE
:1010B0007E0F18160CF04BC02CEA35EC47E257E3D4
:1010C000C701B6010E945F0D18160CF440C0A52D93
:1010D000B4E0AB02C0011124B12CA12CFC01E05AF8
:1010E000FE4F3F019C0128583E4F49013FEF5316E8
:1010F00071F1F301EA0DFB1D259135914591549154
:10110000C701B6010E945F0D87FF13C0F401EA0D0D
:10111000FB1D2591359145915491C701B6010E945F
:10112000C50D6B017C018F89988D801B910B988F69
:101130008F8B159507955A9494E0A91AB108D6CFCC
:1011400000E210E055E0552E188E1F8AABCFC70184
:10115000B6010E944F0F4B015C012B013C0106E0E0
:1011600080E492E4AFE0B0E0898F9A8FAB8FBC8FC0
:10117000102F01509AE04916510461047104C8F01F
:10118000698D7A8D8B8D9C8D2AE030E040E050E0B7
:101190000E948E0E298F3A8F4B8F5C8FC301B20154
:1011A0002AE030E040E050E00E948E0E29013A0132
:1011B000DFCFC501B4010E94640D9B01AC01C701E2
:1011C000B6010E94DB0E6B017C01698D7A8D8B8DDF
:1011D0009C8D0E94640D9B01AC01C701B6010E9469
:1011E000C50D2B013C010E944F0F6B017C010E9439
:1011F000640D9B01AC01C301B2010E94DB0E9B0197
:10120000AC010E94DC0E0E944F0FC60ED71EE81ED6
:10121000F91E898D9A8DAB8DBC8DC816D906EA064C
:10122000FB06D8F09FEF891A990AA90AB90AAF8973
:10123000B88DAB2B39F1BAE08B169104A104B1043F
:1012400008F1EF89F88D3196F88FEF8BC12CD12CF6
:101250007601812C912C540183942AE0422E512C4A
:10126000612C712CC701B601A30192010E948E0E60
:10127000672B682B692B51F4111644F469017A012C
:101280001150F0CFC12CD12C7601E7CFB501A401CC
:10129000C1010E941D04112371F14E01F1E18F0E75
:1012A000911C012F54019AE0492E512C612C712C74
:1012B000015068F0C701B601A30192010E948E0E91
:1012C000605DD4016E934D0169017A01F1CF812FE8
:1012D00090E0BC0160957095F501E81BF90B319722
:1012E0008EE2808344275527461B570B6A0D7B1DD2
:1012F000C1010E940804EF89F88DEF2B29F165E602
:10130000C1010E94F3030F89188D17FF07C06DE21A
:10131000C1010E94F303119501951109FE01779611
:101320009F018AE0E82EF12CC801B7010E94BF0E90
:10133000805D82938B01672BB9F7A9014E1B5F0B70
:10134000BF01C1010E940804D10112968D919C91A8
:10135000EECD6DE5C1010E94F303F6CF6BE7C1014D
:101360000E94F303F801008111810115110559F163
:10137000D8011696CC9016971796DC9062E2C101C0
:101380000E94F3037601F70161917F01662321F04A
:10139000C1010E943E07F7CF62E2C1010E94F30340
:1013A0006AE3C1010E94F303B101C8010E945E0714
:1013B000C8010E9424068C01892B29F06CE2C1012E
:1013C0000E94F303D2CF6DE7C5CF62E2C1010E9454
:1013D000F3038601E00EF11EE016F10639F0F80184
:1013E00061918F01C1010E943E07F6CF62E2B2CF48
:1013F000CD90DD90ED90FC90B701A601F7FE0BC0FB
:101400006DE2C1010E94F30344275527BA014C192C
:101410005D096E097F09C1010E941D0485CD4D91B2
:101420005D916D917C91F7CF8C9169E372E08111B0
:1014300002C06EE372E0C1010E94340775CD8F9245
:101440009F92AF92BF92CF92DF92EF92FF920F9353
:101450001F93CF93DF93CDB7DEB7CA50D4400FB6FA
:10146000F894DEBF0FBECDBFCE010F969A8389835D
:101470009C838B8387EF93E08C0F9D1F9E838D83CE
:1014800098878F8319861E8685E30E94F3017C016D
:101490008E010F5F1F4FA80164E472E0CE010A962F
:1014A0000E945306BC01C7010E94E20383E30E942D
:1014B000F3017C01A8016CE472E0CE010A960E945F
:1014C0005306BC01C7010E94E20380E30E94F301BE
:1014D0007C01A80163E572E0CE010A960E945306E2
:1014E000BC01C7010E94E20382E30E94F3017C0178
:1014F000A8016CE572E0CE010A960E945306BC0179
:10150000C7010E94E20387E20E94F3017C01A80167
:1015100066E672E0CE010A960E945306BC01C7013E
:101520000E94E203C95FDB4F19830883C750D44090
:1015300084E492E0C75FDB4F99838883C950D4402D
:101540006091080270910902CE01895F9B4F0E9451
:10155000B006882309F491C08FE792E0C950DC4FB0
:1015600099838883C75FD340C750DC4F19821882A4
:10157000C95FD340BE0169507C4FCE010A960E94DC
:101580005E0742E050E061E772E08FE792E00E9480
:10159000AB0266E672E0CE010A960E94A8060E949F
:1015A0006904909301028093000264E472E0CE012A
:1015B0000A960E94A8060E946904909309028093EB
:1015C00008026CE472E0CE010A960E94A8060E940E
:1015D0006904909307028093060263E572E0CE01EE
:1015E0000A960E94A8060E946904909305028093BF
:1015F00004026CE572E0CE010A960E94A8060E94E1
:10160000690490930302809302020E9486024B01B8
:101610005C0184E6C82ED12CE12CF12C0E948602BC
:10162000681979098A099B09683E7340810591050B
:10163000A8F391E0C91AD108E108F10828EE820E5A
:1016400023E0921EA11CB11CC114D104E104F104D9
:1016500029F7C65FDB4F0FB6F894DEBF0FBECDBFD4
:10166000DF91CF911F910F91FF90EF90DF90CF907E
:10167000BF90AF909F908F900895CD5FDB4F1983FF
:101680000883C350D4408CE492E0CB5FDB4F998356
:101690008883C550D4406091060270910702CE0144
:1016A0008D5F9B4F0E94B006811156CFC150DC4F19
:1016B00019830883CF5FD34083E592E0CF5FDB4F90
:1016C00099838883C150D4406091040270910502CF
:1016D000CE0181509C4F0E94B00681113DCFC55074
:1016E000DC4F19830883CB5FD3408CE592E0C35075
:1016F000DC4F99838883CD5FD34060910202709163
:101700000302CE0185509C4F0E94B006811124CF68
:10171000C950DC4F19830883C75FD34086E692E047
:10172000C750DC4F99838883C95FD3406091000222
:1017300070910102CE0189509C4F0E94B00688230F
:1017400009F427CF09CF1F920F920FB60F921124E1
:101750002F933F938F939F93AF93BF938091770283
:1017600090917802A0917902B0917A02309176023C
:1017700023E0230F2D3758F50196A11DB11D2093AD
:1017800076028093770290937802A0937902B093C7
:101790007A0280917B0290917C02A0917D02B091AF
:1017A0007E020196A11DB11D80937B0290937C0265
:1017B000A0937D02B0937E02BF91AF919F918F91D4
:1017C0003F912F910F900FBE0F901F90189526E814
:1017D000230F0296A11DB11DD2CF1F920F920FB6FB
:1017E0000F9211240BB60F922F933F934F935F9359
:1017F0006F937F938F939F93AF93BF93EF93FF93D9
:101800008FE792E00E941F03FF91EF91BF91AF918C
:101810009F918F917F916F915F914F913F912F9108
:101820000F900BBE0F900FBE0F901F9018951F9238
:101830000F920FB60F9211240BB60F922F938F9326
:101840009F93EF93FF93E0918F02F091900280813C
:10185000E0919502F091960282FD1DC090818091E9
:1018600098028F5F8F7320919902821741F0E09167
:101870009802F0E0E158FD4F958F80939802FF9118
:10188000EF919F918F912F910F900BBE0F900FBEF4
:101890000F901F9018958081F2CFCF93DF93EFE7E1
:1018A000F2E01382128288EE93E0A0E0B0E084833D
:1018B0009583A683B7838EE092E09183808385EC45
:1018C00090E09587848784EC90E09787868780EC0A
:1018D00090E0918B808B81EC90E0938B828B82ECFB
:1018E00090E0958B848B86EC90E0978B868B118EA5
:1018F000128E138E148ECFE1D3E086E390E09983AD
:10190000888387E390E09B838A831D821C821F82E9
:101910001E8285E090E09987888784E690E09B8727
:101920008A8760E086E30E944A0260E08A810E9422
:101930004A02CCE1D3E087E090E0998388831A8261
:1019400061E00E944A026A818881DF91CF910C9404
:101950001C02789484B5826084BD84B5816084BDA6
:1019600085B5826085BD85B5816085BD80916E003D
:10197000816080936E00109281008091810082606E
:1019800080938100809181008160809381008091AB
:1019900080008160809380008091B100846080939A
:1019A000B1008091B00081608093B000809191007F
:1019B000826080939100809191008160809391007A
:1019C000809190008160809390008091A10082605E
:1019D0008093A1008091A10081608093A1008091FB
:1019E000A00081608093A00080912101826080939B
:1019F000210180912101816080932101809120014A
:101A000081608093200180917A00846080937A00C5
:101A100080917A00826080937A0080917A00816060
:101A200080937A0080917A00806880937A00109287
:101A3000C100E0918F02F091900282E08083E091FA
:101A40008B02F0918C021082E0918D02F0918E0257
:101A50008FEC808310929702E0919302F0919402B0
:101A600086E08083E0919102F09192028081806112
:101A70008083E0919102F09192028081886080835E
:101A8000E0919102F0919202808180688083E091E0
:101A90009102F091920280818F7D808361E086E2E5
:101AA0000E944A0261E086E20E941C0262E086E136
:101AB0000E944A020E941F0A0E94B203FBCF0E94AA
:101AC000A10D08F481E00895E89409C097FB3EF465
:101AD00090958095709561957F4F8F4F9F4F99237B
:101AE000A9F0F92F96E9BB279395F69587957795F9
:101AF0006795B795F111F8CFFAF4BB0F11F460FFB9
:101B00001BC06F5F7F4F8F4F9F4F16C0882311F010
:101B100096E911C0772321F09EE8872F762F05C024
:101B2000662371F096E8862F70E060E02AF09A95BF
:101B3000660F771F881FDAF7880F9695879597F9B4
:101B40000895990F0008550FAA0BE0E8FEEF16164E
:101B50001706E807F907C0F012161306E407F507A1
:101B600098F0621B730B840B950B39F40A2661F015
:101B7000232B242B252B21F408950A2609F4A140B8
:101B8000A6958FEF811D811D08950E94D80D0C949C
:101B9000490E0E943B0E38F00E94420E20F0952321
:101BA00011F00C94320E0C94380E11240C947D0E0E
:101BB0000E945A0E70F3959FC1F3950F50E0551F88
:101BC000629FF001729FBB27F00DB11D639FAA2792
:101BD000F00DB11DAA1F649F6627B00DA11D661FE1
:101BE000829F2227B00DA11D621F739FB00DA11D02
:101BF000621F839FA00D611D221F749F3327A00DBC
:101C0000611D231F849F600D211D822F762F6A2F57
:101C100011249F5750409AF0F1F088234AF0EE0FBC
:101C2000FF1FBB1F661F771F881F91505040A9F7E9
:101C30009E3F510580F00C94320E0C947D0E5F3F58
:101C4000E4F3983ED4F3869577956795B795F79525
:101C5000E7959F5FC1F7FE2B880F911D969587959D
:101C600097F9089597F99F6780E870E060E008951C
:101C70009FEF80EC089500240A94161617061806A4
:101C80000906089500240A94121613061406050680
:101C90000895092E0394000C11F4882352F0BB0F11
:101CA00040F4BF2B11F460FF04C06F5F7F4F8F4F74
:101CB0009F4F089557FD9058440F551F59F05F3FAF
:101CC00071F04795880F97FB991F61F09F3F79F05E
:101CD00087950895121613061406551FF2CF4695E0
:101CE000F1DF08C0161617061806991FF1CF869562
:101CF0007105610508940895E894BB276627772746
:101D0000CB0197F908950E94B00EA59F900DB49F46
:101D1000900DA49F800D911D11240895A1E21A2E0B
:101D2000AA1BBB1BFD010DC0AA1FBB1FEE1FFF1F7F
:101D3000A217B307E407F50720F0A21BB30BE40BCF
:101D4000F50B661F771F881F991F1A9469F7609516
:101D50007095809590959B01AC01BD01CF010895D0
:101D6000A29FB001B39FC001A39F700D811D1124DC
:101D7000911DB29F700D811D1124911D0895AA1B04
:101D8000BB1B51E107C0AA1FBB1FA617B70710F066
:101D9000A61BB70B881F991F5A95A9F78095909598
:101DA000BC01CD010895EE0FFF1F881F8BBF079068
:101DB000F691E02D19945058BB27AA270E94F30EE4
:101DC0000C94490E0E943B0E38F00E94420E20F007
:101DD00039F49F3F19F426F40C94380E0EF4E09574
:101DE000E7FB0C94320EE92F0E945A0E58F3BA17F3
:101DF000620773078407950720F079F4A6F50C9421
:101E00007C0E0EF4E0950B2EBA2FA02D0B01B9011C
:101E100090010C01CA01A0011124FF27591B99F060
:101E2000593F50F4503E68F11A16F040A22F232F6C
:101E3000342F4427585FF3CF469537952795A795BC
:101E4000F0405395C9F77EF41F16BA0B620B730B63
:101E5000840BBAF09150A1F0FF0FBB1F661F771FD4
:101E6000881FC2F70EC0BA0F621F731F841F48F489
:101E7000879577956795B795F7959E3F08F0B0CF12
:101E80009395880F08F09927EE0F979587950895F9
:101E90000E944F0F6894B1110C947D0E08950E941A
:101EA000620E88F09F5798F0B92F9927B751B0F07C
:101EB000E1F0660F771F881F991F1AF0BA95C9F7CE
:101EC00014C0B13091F00E947C0EB1E008950C94E2
:101ED0007C0E672F782F8827B85F39F0B93FCCF395
:101EE000869577956795B395D9F73EF4909580954B
:101EF000709561957F4F8F4F9F4F08950E94A10D60
:101F000008F48FEF0895FB01DC018D910190801999
:0C1F10000110D9F3990B0895F894FFCF4D
:101F1C00010001000100010001000000000041036C
:101F2C00AB02D8028E030903E702FB022F2F2222F9
:101F3C005C5C6208660C6E0A720D7409005C75308C
:101F4C00303030006E756C6C0074727565006661B3
:101F5C006C73650062746E5F3138300062746E5F52
:101F6C0075700062746E5F6C6566740062746E5F8F
:101F7C0072696768740062746E5F73656C65637414
:041F8C00000D0A003A
:00000001FF
