:100000000C9459010C948A010C948A010C948A0175
:100010000C948A010C948A010C948A010C948A0134
:100020000C948A010C948A010C948A010C948A0124
:100030000C948A010C948A010C948A010C948A0114
:100040000C948A010C948A010C948A010C948A0104
:100050000C948A010C948A010C948A010C947F07F9
:100060000C948A010C94F3070C94C9070C948A0130
:100070000C948A010C948A010C948A010C948A01D4
:100080000C948A010C948A010C948A010C948A01C4
:100090000C948A010C948A010C948A010C948A01B4
:1000A0000C948A010C948A010C948A010C948A01A4
:1000B0000C948A010C948A010C948A010C948A0194
:1000C0000C948A010C948A010C948A010C948A0184
:1000D0000C948A010C948A010C948A010C948A0174
:1000E0000C948A010C942A090C94DD010C940703EA
:1000F0000C94C5010C94CF020C94EA010C9471028B
:100100000C94AD020C94BC010C94D3010C94CF015F
:100110000C94B4010C94C9010C94B0010C94D70157
:100120000C94E1010C9454030C94B8010C94E50177
:100130000C949E020C94EF010C94EB010C94AA0118
:100140000C94BF010C94C102CDCCCC3D0AD7233C0A
:1001500017B7D13877CC2B329595E6241FB14F0ACB
:100160000000803FCDCCCC3D6F12833A95BFD63393
:100170007D1D9026B3CE010C000020410000C84236
:1001800000401C4620BCBE4CCA1B0E5AAEC59D7416
:1001900000002200250028002B002E003100340032
:1001A00002010000050108010B01000021002400EC
:1001B00027002A002D003000330001010000040157
:1001C00007010A01000020002300260029002C005E
:1001D0002F0032000001000003010601090105059E
:1001E0000505070508080808020202020A0A0808AD
:1001F00004040404010101010101010103030303DB
:1002000003030303040707070C0C0C0C0C0C0C0C69
:100210000202020206060606060606060B0B0B0B7A
:100220000B0B0B0B0102102020080810204010209F
:1002300040800201020108040201010204081020AA
:1002400040808040201008040201800402018040A8
:100250002010080402010804020101020408102011
:100260004080010204081020408000000A0B0209AF
:100270000C0D0E0807030401000000000000000040
:10028000000000000000000000000000000000006E
:10029000000000000000121110000000000000002B
:1002A000000000000000000000000000000000004E
:1002B0002A0911241FBECFEFD1E2DEBFCDBF00E07F
:1002C0000CBF22E0A6E4B2E001C01D92AE3EB20730
:1002D000E1F712E0A0E0B2E0E8EBF6E100E00BBFEE
:1002E00002C007900D92A634B107D9F711E0C9E515
:1002F000D1E000E006C021970109802FFE010E9495
:10030000B10AC835D10780E00807A9F70E9429087B
:100310000C945A0B0C9400008150823108F05AC0A2
:10032000E82FF0E08827E856FE4F8F4F0C94B10A73
:10033000B801BC01AA01B001B401EA01BF01C501C5
:10034000C901CF01D301D701DD01E101EA01E501D6
:10035000EB01EF01809180008F77809380000895FA
:10036000809180008F7DF9CF80918000877FF5CFCD
:1003700084B58F7784BD089584B58F7DFBCF809140
:10038000B0008F778093B00008958091B0008F7D8A
:10039000F9CF809190008F7780939000089580919D
:1003A00090008F7DF9CF80919000877FF5CF80916D
:1003B000A0008F778093A00008958091A0008F7D8A
:1003C000F9CF8091A000877FF5CF809120018F77B2
:1003D000809320010895809120018F7DF9CF809135
:1003E0002001877FF5CFCF93DF93E0E8F2E084919F
:1003F000EAE3F2E0D491E4EFF1E0C491CC23A1F080
:1004000081110E948C01EC2FF0E0EE0FFF1FEC53E6
:10041000FE4FA591B491EC91ED2381E090E009F4B9
:1004200080E0DF91CF91089580E090E0FACF3FB770
:10043000F8948091EA029091EB02A091EC02B091C5
:10044000ED0226B5A89B05C02F3F19F00196A11D0E
:10045000B11D3FBFBA2FA92F982F8827BC01CD010E
:10046000620F711D811D911D42E0660F771F881F6D
:10047000991F4A95D1F708958F929F92AF92BF929C
:10048000CF92DF92EF92FF920E9417024B015C0124
:100490008AE0C82ED12CE12CF12C0E941702681999
:1004A00079098A099B09683E734081059105A8F383
:1004B00021E0C21AD108E108F10888EE880E83E035
:1004C000981EA11CB11CC114D104E104F10429F748
:1004D000FF90EF90DF90CF90BF90AF909F908F9064
:1004E0000895AF92BF92CF92DF92EF92FF920F9357
:1004F0001F93CF93DF936C017B018B01040F151FBA
:10050000EB015E01AE18BF08C017D10759F0699121
:10051000D601ED91FC910190F081E02DC601199575
:10052000892B79F7C501DF91CF911F910F91FF9032
:10053000EF90DF90CF90BF90AF900895FC01538D66
:10054000448D252F30E0842F90E0821B930B5417AD
:1005500010F0CF96089501970895FC01918D828D3A
:10056000981761F0A28DAE0FBF2FB11D5D968C91D3
:10057000928D9F5F9F73928F90E008958FEF9FEF12
:100580000895FC01918D828D981731F0828DE80FCE
:10059000F11D858D90E008958FEF9FEF0895FC0188
:1005A000918D228D892F90E0805C9F4F821B910955
:1005B0008F739927089588E492E00E94CF0221E08A
:1005C000892B09F420E0822F0895FC01A48DA80F47
:1005D000B92FB11DA35ABF4F2C91848D90E0019685
:1005E0008F739927848FA689B7892C93A089B189A5
:1005F0008C91837080648C93938D848D981306C046
:100600000288F389E02D80818F7D80830895EF92A9
:10061000FF920F931F93CF93DF93EC0181E0888FBC
:100620009B8D8C8D98131AC0E889F989808185FF8C
:1006300015C09FB7F894EE89FF896083E889F9892E
:1006400080818370806480839FBF81E090E0DF9130
:10065000CF911F910F91FF90EF900895F62E0B8D83
:1006600010E00F5F1F4F0F731127E02E8C8D8E113E
:100670000CC00FB607FCFACFE889F989808185FFA5
:10068000F5CFCE010E94E502F1CFEB8DEC0FFD2FEF
:10069000F11DE35AFF4FF0829FB7F8940B8FEA8960
:1006A000FB8980818062CFCFCF93DF93EC01888D6F
:1006B0008823B9F0AA89BB89E889F9898C9185FDDD
:1006C00003C0808186FD0DC00FB607FCF7CF8C916B
:1006D00085FFF2CF808185FFEDCFCE010E94E5023C
:1006E000E9CFDF91CF91089581E08093470208958B
:1006F0000E94DB02882319F081E08093470280E0AA
:1007000090E0892B49F080E090E0892B29F00E944D
:10071000000081110E94000080E090E0892B49F0E8
:1007200080E090E0892B29F00E94000081110E9456
:10073000000080E090E0892B49F080E090E0892B78
:1007400029F00E94000081110C9400000895CF93BD
:10075000DF93EC0188819981DC01ED91FC9101909E
:10076000F081E02D19952A813B81820F931F9B8395
:100770008A83DF91CF910895CF93DF93EC01888135
:100780009981DC01ED91FC910280F381E02D1995B6
:100790002A813B81820F931F9B838A83DF91CF91B4
:1007A00008958F929F92AF92BF92CF92DF92EF9275
:1007B000FF920F931F93CF93DF93CDB7DEB766976A
:1007C0000FB6F894DEBF0FBECDBF6C018E01095E7F
:1007D0001F4F78018AE0882E912CA12CB12CCB01DF
:1007E000BA01A50194010E948F0A942F852F605DA4
:1007F000F80162938F01A901692F782F41155105E6
:100800006105710561F7A7014E1B5F0BBF01C601B2
:100810000E94BC0366960FB6F894DEBF0FBECDBF34
:10082000DF91CF911F910F91FF90EF90DF90CF90CC
:10083000BF90AF909F908F9008950895FC012581FF
:10084000222339F0F8E02F0290011124820F931F28
:10085000089590E080E00895FB0101900020E9F701
:100860003197AF01461B570B0C94BC031F93CF93DA
:10087000DF93E2E1F2E01281112379F032962181D7
:100880006213F9CFEC016CE50E94A703612FCE0142
:10089000DF91CF911F910C94A7036111F9CF63E20F
:1008A00072E0DF91CF911F910C942C042F923F9214
:1008B0004F925F926F927F928F929F92AF92BF9270
:1008C000CF92DF92EF92FF920F931F93CF93DF931C
:1008D000CDB7DEB76C970FB6F894DEBF0FBECDBFB5
:1008E0008C011B01DC0114968C9114978F77863054
:1008F00009F492C268F58230A0F11296ED90FC9056
:100900001397CC901196DC90843008F056C2A70162
:10091000B601C1010E94BC03F101828193816C96F2
:100920000FB6F894DEBF0FBECDBFDF91CF911F9100
:100930000F91FF90EF90DF90CF90BF90AF909F907E
:100940008F907F906F905F904F903F902F90089581
:100950008C3069F160F4883009F459C28A3009F4A6
:100960003FC26AE272E0C1010E942C04E5C18032FC
:1009700009F4ECC18034A9F76BE5C1010E94A7031B
:10098000F801008111810115110509F4DAC1B101E5
:10099000C8010E945604C8010E941E048C01892BC4
:1009A00009F4CFC16CE2C1010E94A703ECCFF801AA
:1009B000C080D180E280F380A7019601C701B60113
:1009C0000E9457098111CDCF20E030E0A901C70175
:1009D000B6010E945709882379F0A7019601C70143
:1009E000B6010E94BA0A9B01AC01C701B6010E9480
:1009F0005709882309F4B5CF20E030E0A901C701E9
:100A0000B6010E94570987FF08C06DE2C1010E942C
:100A1000A703F7FAF094F7F8F09420E836E948E1F4
:100A20005BE4C701B6010E94550B87FD81C074E1EC
:100A3000A72EB12C00E210E0188E1F8AF501E858AD
:100A4000FE4F2591359145915491C701B6010E9401
:100A5000550B87FD13C0F501E85BFE4F25913591DD
:100A600045915491C701B6010E94BD096B017C01FB
:100A70002F89388D200F311F388F2F8B15950795B3
:100A800034E0A31AB1088CEFA8168FEFB806B1F6C0
:100A900055245A9420E030E0A901C701B6010E9414
:100AA000550B18160CF04BC02CEA35EC47E257E317
:100AB000C701B6010E94570918160CF440C0A52DB5
:100AC000B4E0AB02C0011124B12CA12CFC01E05A0E
:100AD000FE4F3F019C0128583E4F49013FEF5316FE
:100AE00071F1F301EA0DFB1D25913591459154916A
:100AF000C701B6010E94570987FF13C0F401EA0D30
:100B0000FB1D2591359145915491C701B6010E9475
:100B1000BD096B017C018F89988D801B910B988F8B
:100B20008F8B159507955A9494E0A91AB108D6CFE2
:100B300000E210E055E0552E188E1F8AABCFC7019A
:100B4000B6010E94260B4B015C012B013C0106E023
:100B500080E492E4AFE0B0E0898F9A8FAB8FBC8FD6
:100B6000102F01509AE04916510461047104C8F035
:100B7000698D7A8D8B8D9C8D2AE030E040E050E0CD
:100B80000E948F0A298F3A8F4B8F5C8FC301B2016D
:100B90002AE030E040E050E00E948F0A29013A014B
:100BA000DFCFC501B4010E945C099B01AC01C70104
:100BB000B6010E94B90A6B017C01698D7A8D8B8D1B
:100BC0009C8D0E945C099B01AC01C701B6010E948B
:100BD000BD092B013C010E94260B6B017C010E9488
:100BE0005C099B01AC01C301B2010E94B90A9B01DF
:100BF000AC010E94BA0A0E94260BC60ED71EE81E40
:100C0000F91E898D9A8DAB8DBC8DC816D906EA0662
:100C1000FB06D8F09FEF891A990AA90AB90AAF8989
:100C2000B88DAB2B39F1BAE08B169104A104B10455
:100C300008F1EF89F88D3196F88FEF8BC12CD12C0C
:100C40007601812C912C540183942AE0422E512C60
:100C5000612C712CC701B601A30192010E948F0A79
:100C6000672B682B692B51F4111644F469017A0142
:100C70001150F0CFC12CD12C7601E7CFB501A401E2
:100C8000C1010E94D103112371F14E01F1E18F0ED8
:100C9000911C012F54019AE0492E512C612C712C8A
:100CA000015068F0C701B601A30192010E948F0AAA
:100CB000605DD4016E934D0169017A01F1CF812FFE
:100CC00090E0BC0160957095F501E81BF90B319738
:100CD0008EE2808344275527461B570B6A0D7B1DE8
:100CE000C1010E94BC03EF89F88DEF2B29F165E665
:100CF000C1010E94A7030F89188D17FF07C06DE27D
:100D0000C1010E94A703119501951109FE01779673
:100D10009F018AE0E82EF12CC801B7010E947B0AEE
:100D2000805D82938B01672BB9F7A9014E1B5F0B86
:100D3000BF01C1010E94BC03D10112968D919C910B
:100D4000EECD6DE5C1010E94A703F6CF6BE7C101AF
:100D50000E94A703F801008111810115110559F1C5
:100D6000D8011696CC9016971796DC9062E2C101D6
:100D70000E94A7037601F70161917F01662321F0AC
:100D8000C1010E943604F7CF62E2C1010E94A703AD
:100D90006AE3C1010E94A703B101C8010E94560481
:100DA000C8010E941E048C01892B29F06CE2C1014C
:100DB0000E94A703D2CF6DE7C5CF62E2C1010E94B6
:100DC000A7038601E00EF11EE016F10639F0F801E6
:100DD00061918F01C1010E943604F6CF62E2B2CF69
:100DE000CD90DD90ED90FC90B701A601F7FE0BC011
:100DF0006DE2C1010E94A70344275527BA014C198F
:100E00005D096E097F09C1010E94D10385CD4D9115
:100E10005D916D917C91F7CF8C916FE272E08111C1
:100E200002C064E372E0C1010E942C0475CDCF932F
:100E3000DF93CDB7DEB7C650D2400FB6F894DEBF11
:100E40000FBECDBF0E94F301892B09F04CC00E9458
:100E5000F301892B19F40E943C02F9CFCE010F96C1
:100E60009A8389839C838B83BE016D5F7D4F7887D6
:100E70006F83198680E28E87FE01E550FE4FFE8368
:100E8000ED83FB87EA87FD87EC87C050DE4F188231
:100E9000C050D2408AE392E0CF5FDD4F99838883D0
:100EA000C150D2408AE0C150DE4F8883CF5FD1402D
:100EB00086E190E0A0E0B0E080839183A283B383D9
:100EC00088E492E0FB019183808313821282CE0139
:100ED0000A960E94560442E050E063E472E088E41F
:100EE00092E00E9471020E943C02CA5FDD4F0FB681
:100EF000F894DEBF0FBECDBFDF91CF9108951F9252
:100F00000F920FB60F9211242F933F938F939F93BD
:100F1000AF93BF938091E6029091E702A091E8021F
:100F2000B091E9023091E50223E0230F2D3758F507
:100F30000196A11DB11D2093E5028093E6029093D6
:100F4000E702A093E802B093E9028091EA0290914F
:100F5000EB02A091EC02B091ED020196A11DB11D32
:100F60008093EA029093EB02A093EC02B093ED021F
:100F7000BF91AF919F918F913F912F910F900FBE95
:100F80000F901F90189526E8230F0296A11DB11D02
:100F9000D2CF1F920F920FB60F9211240BB60F9261
:100FA0002F933F934F935F936F937F938F939F9371
:100FB000AF93BF93EF93FF9388E492E00E94E50222
:100FC000FF91EF91BF91AF919F918F917F916F9121
:100FD0005F914F913F912F910F900BBE0F900FBEDD
:100FE0000F901F9018951F920F920FB60F92112419
:100FF0000BB60F922F938F939F93EF93FF93E091F4
:101000005802F09159028081E0915E02F0915F02F6
:1010100082FD1DC09081809161028F5F8F7320914E
:101020006202821741F0E0916102F0E0E85BFD4F5F
:10103000958F80936102FF91EF919F918F912F91F6
:101040000F900BBE0F900FBE0F901F9018958081D0
:10105000F2CF789484B5826084BD84B5816084BD0C
:1010600085B5826085BD85B5816085BD80916E0046
:10107000816080936E001092810080918100826077
:1010800080938100809181008160809381008091B4
:1010900080008160809380008091B10084608093A3
:1010A000B1008091B00081608093B0008091910088
:1010B0008260809391008091910081608093910083
:1010C000809190008160809390008091A100826067
:1010D0008093A1008091A10081608093A100809104
:1010E000A00081608093A0008091210182608093A4
:1010F0002101809121018160809321018091200153
:1011000081608093200180917A00846080937A00CE
:1011100080917A00826080937A0080917A00816069
:1011200080937A0080917A00806880937A00109290
:10113000C100E0915802F091590282E08083E09171
:101140005402F09155021082E0915602F09157023C
:101150008FEC808310926002E0915C02F0915D025E
:1011600086E08083E0915A02F0915B028081806189
:101170008083E0915A02F0915B02808188608083D5
:10118000E0915A02F0915B02808180688083E09157
:101190005A02F0915B0280818F7D80834AE452E0A5
:1011A000FA01649124E032E0F9018491882399F0F6
:1011B00090E0880F991FFC01E655FE4FA591B49170
:1011C000FC01E057FE4F859194918FB7F8949C9164
:1011D000692B6C938FBFE0E9F2E08491FA01D4911E
:1011E000F901C491CC2389F081110E948C01EC2F6C
:1011F000F0E0EE0FFF1FE057FE4FA591B4918FB7BF
:10120000F8944C914D2B4C938FBFEAE3F2E024917C
:10121000E4EFF1E084918823C1F090E0880F991FFA
:10122000FC01E655FE4FC591D491FC01E057FE4FFD
:10123000A591B4919FB7F8943881822F809583232C
:101240008883EC91E22BEC939FBF0E9417070E94CA
:101250007803FBCFE8E4F2E01382128288EE93E099
:10126000A0E0B0E084839583A683B78384E092E016
:101270009183808385EC90E09587848784EC90E06F
:101280009787868780EC90E0918B808B81EC90E053
:10129000938B828B82EC90E0958B848B86EC90E034
:1012A000978B868B118E128E138E148E08950E944A
:1012B000990908F481E00895E89409C097FB3EF489
:1012C00090958095709561957F4F8F4F9F4F992393
:1012D000A9F0F92F96E9BB279395F6958795779511
:1012E0006795B795F111F8CFFAF4BB0F11F460FFD1
:1012F0001BC06F5F7F4F8F4F9F4F16C0882311F029
:1013000096E911C0772321F09EE8872F762F05C03C
:10131000662371F096E8862F70E060E02AF09A95D7
:10132000660F771F881FDAF7880F9695879597F9CC
:101330000895990F0008550FAA0BE0E8FEEF161666
:101340001706E807F907C0F012161306E407F507B9
:1013500098F0621B730B840B950B39F40A2661F02D
:10136000232B242B252B21F408950A2609F4A140D0
:10137000A6958FEF811D811D08950E94D0090C94C0
:10138000410A0E94330A38F00E943A0A20F095235D
:1013900011F00C942A0A0C94300A11240C94750A4A
:1013A0000E94520A70F3959FC1F3950F50E0551FAC
:1013B000629FF001729FBB27F00DB11D639FAA27AA
:1013C000F00DB11DAA1F649F6627B00DA11D661FF9
:1013D000829F2227B00DA11D621F739FB00DA11D1A
:1013E000621F839FA00D611D221F749F3327A00DD4
:1013F000611D231F849F600D211D822F762F6A2F70
:1014000011249F5750409AF0F1F088234AF0EE0FD4
:10141000FF1FBB1F661F771F881F91505040A9F701
:101420009E3F510580F00C942A0A0C94750A5F3F88
:10143000E4F3983ED4F3869577956795B795F7953D
:10144000E7959F5FC1F7FE2B880F911D96958795B5
:1014500097F9089597F99F6780E870E060E0089534
:101460009FEF80EC089500240A94161617061806BC
:101470000906089500240A94121613061406050698
:101480000895092E0394000C11F4882352F0BB0F29
:1014900040F4BF2B11F460FF04C06F5F7F4F8F4F8C
:1014A0009F4F089557FD9058440F551F59F05F3FC7
:1014B00071F04795880F97FB991F61F09F3F79F076
:1014C00087950895121613061406551FF2CF4695F8
:1014D000F1DF08C0161617061806991FF1CF86957A
:1014E0007105610508940895E894BB27662777275E
:1014F000CB0197F90895AA1BBB1B51E107C0AA1F96
:10150000BB1FA617B70710F0A61BB70B881F991FA4
:101510005A95A9F780959095BC01CD010895A1E257
:101520001A2EAA1BBB1BFD010DC0AA1FBB1FEE1F5D
:10153000FF1FA217B307E407F50720F0A21BB30BA8
:10154000E40BF50B661F771F881F991F1A9469F724
:1015500060957095809590959B01AC01BD01CF0180
:101560000895EE0FFF1F881F8BBF0790F691E02DA7
:1015700019945058BB27AA270E94D10A0C94410AFB
:101580000E94330A38F00E943A0A20F039F49F3F53
:1015900019F426F40C94300A0EF4E095E7FB0C9451
:1015A0002A0AE92F0E94520A58F3BA1762077307F2
:1015B0008407950720F079F4A6F50C94740A0EF4CC
:1015C000E0950B2EBA2FA02D0B01B90190010C0153
:1015D000CA01A0011124FF27591B99F0593F50F46B
:1015E000503E68F11A16F040A22F232F342F4427C3
:1015F000585FF3CF469537952795A795F0405395BB
:10160000C9F77EF41F16BA0B620B730B840BBAF08A
:101610009150A1F0FF0FBB1F661F771F881FC2F7F5
:101620000EC0BA0F621F731F841F48F48795779509
:101630006795B795F7959E3F08F0B0CF9395880FC3
:1016400008F09927EE0F9795879508950E945A0AFA
:1016500088F09F5798F0B92F9927B751B0F0E1F073
:10166000660F771F881F991F1AF0BA95C9F714C023
:10167000B13091F00E94740AB1E008950C94740A9C
:10168000672F782F8827B85F39F0B93FCCF386955C
:1016900077956795B395D9F73EF4909580957095B9
:1016A00061957F4F8F4F9F4F08950E94990908F4CD
:0816B0008FEF0895F894FFCFBD
:1016B80000000000070371029E025403CF02AD022E
:1016C800C1022F2F22225C5C6208660C6E0A720D22
:1016D8007409005C7530303030006E756C6C0074C5
:1016E8007275650066616C736500426F75746F6E24
:0616F8004F6E000D0A0018
:00000001FF
