:100000000C9459010C948A010C948A010C948A0175
:100010000C948A010C948A010C948A010C948A0134
:100020000C948A010C948A010C948A010C948A0124
:100030000C948A010C948A010C948A010C948A0114
:100040000C948A010C948A010C948A010C948A0104
:100050000C948A010C948A010C948A010C94D80A9D
:100060000C948A010C944C0B0C94220B0C948A0176
:100070000C948A010C948A010C948A010C948A01D4
:100080000C948A010C948A010C948A010C948A01C4
:100090000C948A010C948A010C948A010C948A01B4
:1000A0000C948A010C948A010C948A010C948A01A4
:1000B0000C948A010C948A010C948A010C948A0194
:1000C0000C948A010C948A010C948A010C948A0184
:1000D0000C948A010C948A010C948A010C948A0174
:1000E0000C948A010C94EB010C94B0010C94D30194
:1000F0000C94BC010C94FD020C94DD010C94EA01FB
:100100000C94E0030C94AA010C94C9010C94B40162
:100110000C94E1010C94B8010C945B030C94E50180
:100120000C942A030C944D030C94820B0C94D7016D
:100130000C9439030C94C5010C94CF010C949303D7
:100140000C94EF010C94BF01CDCCCC3D0AD7233CDD
:1001500017B7D13877CC2B329595E6241FB14F0ACB
:100160000000803FCDCCCC3D6F12833A95BFD63393
:100170007D1D9026B3CE010C000020410000C84236
:1001800000401C4620BCBE4CCA1B0E5AAEC59D7416
:1001900000002100240027002A002D003000330039
:1001A00001010000040107010A01000022002500EE
:1001B00028002B002E003100340002010000050150
:1001C00008010B01000020002300260029002C005C
:1001D0002F0032000001000003010601090105059E
:1001E0000505070508080808020202020A0A0808AD
:1001F00004040404010101010101010103030303DB
:1002000003030303040707070C0C0C0C0C0C0C0C69
:100210000202020206060606060606060B0B0B0B7A
:100220000B0B0B0B0102102020080810204010209F
:1002300040800201020108040201010204081020AA
:1002400040808040201008040201800402018040A8
:100250002010080402010804020101020408102011
:100260004080010204081020408000000A0B0209AF
:100270000C0D0E0807030401000000000000000040
:10028000000000000000000000000000000000006E
:10029000000000000000121110000000000000002B
:1002A000000000000000000000000000000000004E
:1002B000820B11241FBECFEFD1E2DEBFCDBF00E025
:1002C0000CBF12E0A0E0B2E0E8EBFEE100E00BBF03
:1002D00002C007900D92A03CB107D9F723E0A0EC33
:1002E000B2E001C01D92A737B207E1F711E0C9E5FE
:1002F000D1E000E006C021970109802FFE010E9495
:100300002F0EC835D10780E00807A9F70E94DE0B41
:100310000C945A0F0C9400008150823108F05AC09E
:10032000E82FF0E08827E856FE4F8F4F0C942F0EF1
:10033000B801BC01AA01B001B401EA01BF01C501C5
:10034000C901CF01D301D701DD01E101EA01E501D6
:10035000EB01EF01809180008F77809380000895FA
:10036000809180008F7DF9CF80918000877FF5CFCD
:1003700084B58F7784BD089584B58F7DFBCF809140
:10038000B0008F778093B00008958091B0008F7D8A
:10039000F9CF809190008F7780939000089580919D
:1003A00090008F7DF9CF80919000877FF5CF80916D
:1003B000A0008F778093A00008958091A0008F7D8A
:1003C000F9CF8091A000877FF5CF809120018F77B2
:1003D000809320010895809120018F7DF9CF809135
:1003E0002001877FF5CFCF93DF93282F30E0F901ED
:1003F000E659FD4F8491F901EC5DFD4FD491F9016F
:10040000E252FE4FC491CC23A1F081110E948C01D5
:10041000EC2FF0E0EE0FFF1FEC53FE4FA591B491CF
:10042000EC91ED2381E090E009F480E0DF91CF9141
:10043000089580E090E0FACF1F93CF93DF93282FA9
:1004400030E0F901E659FD4F8491F901EC5DFD4F73
:10045000D491F901E252FE4FC491CC23A9F0162F9A
:1004600081110E948C01EC2FF0E0EE0FFF1FE6558A
:10047000FE4FA591B4918FB7F894EC91111108C07B
:10048000D095DE23DC938FBFDF91CF911F9108952C
:10049000DE2BF8CFCF93DF9390E0FC01EC5DFD4FB6
:1004A000249182529E4FFC0184918823C9F090E0F0
:1004B000880F991FFC01E057FE4FA591B491FC01F4
:1004C000E655FE4FC591D49161110DC09FB7F894C8
:1004D0008C91209582238C938881282328839FBF29
:1004E000DF91CF910895623051F49FB7F8943C9119
:1004F000822F809583238C93E8812E2BEFCF8FB7AB
:10050000F894EC912E2B2C938FBFEACF863308F012
:10051000865320917B00982F9870277F922B909381
:100520007B008770806480937C0080917A00806477
:1005300080937A0080917A0086FDFCCF80917800CC
:100540009091790008953FB7F8948091C7029091F7
:10055000C802A091C902B091CA0226B5A89B05C0E5
:100560002F3F19F00196A11DB11D3FBFBA2FA92F32
:10057000982F8827BC01CD01620F711D811D911D2F
:1005800042E0660F771F881F991F4A95D1F708959B
:100590008F929F92AF92BF92CF92DF92EF92FF9293
:1005A0000E94A3024B015C018AE0C82ED12CE12CF1
:1005B000F12C0E94A302681979098A099B09683EF7
:1005C000734081059105A8F321E0C21AD108E10822
:1005D000F10888EE880E83E0981EA11CB11CC1149E
:1005E000D104E104F10429F7FF90EF90DF90CF9060
:1005F000BF90AF909F908F900895AF92BF92CF928F
:10060000DF92EF92FF920F931F93CF93DF936C01D2
:100610007B018B01040F151FEB015E01AE18BF08B3
:10062000C017D10759F06991D601ED91FC91019065
:10063000F081E02DC6011995892B79F7C501DF916D
:10064000CF911F910F91FF90EF90DF90CF90BF90CF
:10065000AF900895FC01538D448D252F30E0842FF9
:1006600090E0821B930B541710F0CF9608950197DA
:100670000895FC01918D828D981761F0A28DAE0FC7
:10068000BF2FB11D5D968C91928D9F5F9F73928F4E
:1006900090E008958FEF9FEF0895FC01918D828D7A
:1006A000981731F0828DE80FF11D858D90E0089547
:1006B0008FEF9FEF0895FC01918D228D892F90E09F
:1006C000805C9F4F821B91098F73992708958BEC53
:1006D00092E00E945B0321E0892B09F420E0822F45
:1006E0000895FC01A48DA80FB92FB11DA35ABF4FC7
:1006F0002C91848D90E001968F739927848FA68921
:10070000B7892C93A089B1898C91837080648C9374
:10071000938D848D981306C00288F389E02D808123
:100720008F7D80830895EF92FF920F931F93CF9355
:10073000DF93EC0181E0888F9B8D8C8D98131AC01C
:10074000E889F989808185FF15C09FB7F894EE8903
:10075000FF896083E889F989808183708064808360
:100760009FBF81E090E0DF91CF911F910F91FF90AB
:10077000EF900895F62E0B8D10E00F5F1F4F0F7353
:100780001127E02E8C8D8E110CC00FB607FCFACF0E
:10079000E889F989808185FFF5CFCE010E94710338
:1007A000F1CFEB8DEC0FFD2FF11DE35AFF4FF082DF
:1007B0009FB7F8940B8FEA89FB8980818062CFCF45
:1007C000CF93DF93EC01888D8823B9F0AA89BB8988
:1007D000E889F9898C9185FD03C0808186FD0DC073
:1007E0000FB607FCF7CF8C9185FFF2CF808185FF94
:1007F000EDCFCE010E947103E9CFDF91CF91089533
:1008000081E08093C10208950E946703882319F054
:1008100081E08093C10280E090E0892B49F080E084
:1008200090E0892B29F00E94000081110E940000B5
:1008300080E090E0892B49F080E090E0892B29F05E
:100840000E94000081110E94000080E090E0892B4E
:1008500049F080E090E0892B29F00E94000081118E
:100860000C940000089508959C01FB01309761F0FD
:10087000948190789A609483C901330FAA0BBB0BC3
:1008800080839183A283B3830895CF93DF93EC0198
:1008900088819981DC01ED91FC910190F081E02D3E
:1008A00019952A813B81820F931F9B838A83DF9155
:1008B000CF910895CF93DF93EC0188819981DC017A
:1008C000ED91FC910280F381E02D19952A813B8105
:1008D000820F931F9B838A83DF91CF9108958F921C
:1008E0009F92AF92BF92CF92DF92EF92FF920F93BF
:1008F0001F93CF93DF93CDB7DEB766970FB6F8940B
:10090000DEBF0FBECDBF6C018E01095E1F4F7801A7
:100910008AE0882E912CA12CB12CCB01BA01A50123
:1009200094010E94EA0D942F852F605DF801629377
:100930008F01A901692F782F4115510561057105B6
:1009400061F7A7014E1B5F0BBF01C6010E945A044D
:1009500066960FB6F894DEBF0FBECDBFDF91CF9184
:100960001F910F91FF90EF90DF90CF90BF90AF90CD
:100970009F908F900895FC012581222339F0F8E0A3
:100980002F0290011124820F931F089590E080E0C0
:100990000895CF92DF92EF92FF920F931F93CF9320
:1009A000DF93FC018481982F9F7739F480788062EF
:1009B00084831182108213821282848185FD0BC090
:1009C00080E090E0DF91CF911F910F91FF90EF9029
:1009D000DF90CF9008956115710591F3EA017B01D5
:1009E0006F01008111810115110589F1D801169659
:1009F0006D917C91C7010E94510F892B31F1C80183
:100A00000E94BB048C01EFCF3897FD83EC833097B5
:100A1000B9F2E601AA81BB81109791F0CF018A1B40
:100A20009B0B23E0959587952A95E1F715968C9376
:100A3000FB83EA8315821482F782E682CF01C2CF5C
:100A4000F983E883FB83EA83F5CFC801BBCFEC8150
:100A5000FD818A819B810896E817F907A8F681E055
:100A60008887AECFFB0101900020E9F73197AF01F5
:100A7000461B570B0C945A041F93CF93DF93E2E16C
:100A8000F2E01281112379F0329621816213F9CFBD
:100A9000EC016CE50E944504612FCE01DF91CF91FE
:100AA0001F910C9445046111F9CF63E272E0DF916C
:100AB000CF911F910C9432052F923F924F925F92EB
:100AC0006F927F928F929F92AF92BF92CF92DF925E
:100AD000EF92FF920F931F93CF93DF93CDB7DEB7C3
:100AE0006C970FB6F894DEBF0FBECDBF8C011B0113
:100AF000DC0114968C9114978F77863009F492C29A
:100B000068F58230A0F11296ED90FC901397CC908E
:100B10001196DC90843008F056C2A701B601C101DD
:100B20000E945A04F101828193816C960FB6F89469
:100B3000DEBF0FBECDBFDF91CF911F910F91FF9010
:100B4000EF90DF90CF90BF90AF909F908F907F906D
:100B50006F905F904F903F902F9008958C3069F187
:100B600060F4883009F459C28A3009F43FC26AE25D
:100B700072E0C1010E943205E5C1803209F4ECC186
:100B80008034A9F76BE5C1010E944504F80100819A
:100B900011810115110509F4DAC1B101C8010E94E2
:100BA0005C05C8010E94BB048C01892B09F4CFC1EC
:100BB0006CE2C1010E944504ECCFF801C080D180F5
:100BC000E280F380A7019601C701B6010E94940C50
:100BD0008111CDCF20E030E0A901C701B6010E940C
:100BE000940C882379F0A7019601C701B6010E94F1
:100BF000380E9B01AC01C701B6010E94940C8823FA
:100C000009F4B5CF20E030E0A901C701B6010E9488
:100C1000940C87FF08C06DE2C1010E944504F7FAF9
:100C2000F094F7F8F09420E836E948E15BE4C70176
:100C3000B6010E944C0F87FD81C074E1A72EB12C34
:100C400000E210E0188E1F8AF501E858FE4F25914A
:100C5000359145915491C701B6010E944C0F87FD13
:100C600013C0F501E85BFE4F2591359145915491F4
:100C7000C701B6010E94FA0C6B017C012F89388DE7
:100C8000200F311F388F2F8B1595079534E0A31A4D
:100C9000B1088CEFA8168FEFB806B1F655245A9418
:100CA00020E030E0A901C701B6010E944C0F1816E0
:100CB0000CF04BC02CEA35EC47E257E3C701B60114
:100CC0000E94940C18160CF440C0A52DB4E0AB02A1
:100CD000C0011124B12CA12CFC01E05AFE4F3F01B0
:100CE0009C0128583E4F49013FEF531671F1F30123
:100CF000EA0DFB1D2591359145915491C701B6012F
:100D00000E94940C87FF13C0F401EA0DFB1D25918E
:100D1000359145915491C701B6010E94FA0C6B01BF
:100D20007C018F89988D801B910B988F8F8B1595E7
:100D300007955A9494E0A91AB108D6CF00E210E0C2
:100D400055E0552E188E1F8AABCFC701B6010E9401
:100D50001D0F4B015C012B013C0106E080E492E495
:100D6000AFE0B0E0898F9A8FAB8FBC8F102F01500E
:100D70009AE04916510461047104C8F0698D7A8DB6
:100D80008B8D9C8D2AE030E040E050E00E94EA0D1F
:100D9000298F3A8F4B8F5C8FC301B2012AE030E07C
:100DA00040E050E00E94EA0D29013A01DFCFC50181
:100DB000B4010E94990C9B01AC01C701B6010E94CD
:100DC000370E6B017C01698D7A8D8B8D9C8D0E9415
:100DD000990C9B01AC01C701B6010E94FA0C2B01D2
:100DE0003C010E941D0F6B017C010E94990C9B012C
:100DF000AC01C301B2010E94370E9B01AC010E94FD
:100E0000380E0E941D0FC60ED71EE81EF91E898DD2
:100E10009A8DAB8DBC8DC816D906EA06FB06D8F0B4
:100E20009FEF891A990AA90AB90AAF89B88DAB2B25
:100E300039F1BAE08B169104A104B10408F1EF89ED
:100E4000F88D3196F88FEF8BC12CD12C7601812C47
:100E5000912C540183942AE0422E512C612C712C48
:100E6000C701B601A30192010E94EA0D672B682B0E
:100E7000692B51F4111644F469017A011150F0CF35
:100E8000C12CD12C7601E7CFB501A401C1010E948C
:100E90006F04112371F14E01F1E18F0E911C012FAE
:100EA00054019AE0492E512C612C712C015068F0AC
:100EB000C701B601A30192010E94EA0D605DD40151
:100EC0006E934D0169017A01F1CF812F90E0BC0151
:100ED00060957095F501E81BF90B31978EE28083E0
:100EE00044275527461B570B6A0D7B1DC1010E94E5
:100EF0005A04EF89F88DEF2B29F165E6C1010E94B4
:100F000045040F89188D17FF07C06DE2C1010E94CB
:100F10004504119501951109FE0177969F018AE01C
:100F2000E82EF12CC801B7010E941B0E805D829350
:100F30008B01672BB9F7A9014E1B5F0BBF01C101E4
:100F40000E945A04D10112968D919C91EECD6DE5CF
:100F5000C1010E944504F6CF6BE7C1010E94450420
:100F6000F801008111810115110559F1D80116967A
:100F7000CC9016971796DC9062E2C1010E9445045E
:100F80007601F70161917F01662321F0C1010E9482
:100F90003C05F7CF62E2C1010E9445046AE3C1014A
:100FA0000E944504B101C8010E945C05C8010E946D
:100FB000BB048C01892B29F06CE2C1010E9445041D
:100FC000D2CF6DE7C5CF62E2C1010E944504860120
:100FD000E00EF11EE016F10639F0F80161918F0183
:100FE000C1010E943C05F6CF62E2B2CFCD90DD9008
:100FF000ED90FC90B701A601F7FE0BC06DE2C101B8
:101000000E94450444275527BA014C195D096E0911
:101010007F09C1010E946F0485CD4D915D916D9155
:101020007C91F7CF8C916FE272E0811102C064E392
:1010300072E0C1010E94320575CDCF93DF9300D0DD
:101040001F92CDB7DEB72BEC32E03A8329831C82A6
:101050001B82BE016F5F7F4F09960E945C050F9057
:101060000F900F900F90DF91CF9108954F925F9264
:101070006F927F928F929F92AF92BF92CF92DF92A8
:10108000EF92FF920F931F93CF93DF93CDB7DEB70D
:10109000C250D2400FB6F894DEBF0FBECDBF8091D4
:1010A000C102882309F46AC2CE010F969A8389830C
:1010B0009C838B838C509E4F9E838D8398878F83D8
:1010C00019861E8685E30E94F301892BE9F485E3E6
:1010D0000E94F301892B19F40E94C802F8CF85E31E
:1010E0000E94F3018C01AE014F5F5F4F6AE372E033
:1010F000CE010A960E94C904BC01C8010E943404B2
:10110000CE0101960E941D0883E30E94F301892B02
:10111000E9F483E30E94F301892B19F40E94C802C9
:10112000F8CF83E30E94F3018C01AE014F5F5F4F64
:1011300062E472E0CE010A960E94C904BC01C801B3
:101140000E943404CE0101960E941D0880E30E9493
:10115000F301892BE9F480E30E94F301892B19F450
:101160000E94C802F8CF80E30E94F3018C01AE0117
:101170004F5F5F4F69E472E0CE010A960E94C90496
:10118000BC01C8010E943404CE0101960E941D08D2
:1011900082E30E94F301892BE9F482E30E94F301C8
:1011A000892B19F40E94C802F8CF82E30E94F30150
:1011B0008C01AE014F5F5F4F62E572E0CE010A968F
:1011C0000E94C904BC01C8010E943404CE010196EA
:1011D0000E941D0887E20E94F301892BE9F487E24F
:1011E0000E94F301892B19F40E94C802F8CF87E20C
:1011F0000E94F3018C01AE014F5F5F4F6CE572E01E
:10120000CE010A960E94C904BC01C8010E943404A0
:10121000CE0101960E941D080AE010E0C12CD12CDD
:101220007601460157012601370186E30E948602B6
:10123000BC01990F880B990B0E949B0C9B01AC0180
:10124000C301B2010E94380E2B013C0187E30E94CA
:101250008602BC01990F880B990B0E949B0C9B0185
:10126000AC01C501B4010E94380E4B015C0188E35A
:101270000E948602BC01990F880B990B0E949B0C5F
:101280009B01AC01C701B6010E94380E6B017C01C5
:101290000150110951F6AE014F5F5F4F67E672E0F2
:1012A000CE010A960E94C9048C010097A1F1FC01AD
:1012B000848180788C60848320E030E040E251E4D7
:1012C000C301B2010E94A40E0E94160F9B01770F6A
:1012D000440B550B2051314041095109A8ECB0E0B5
:1012E0000E94D70D2CE730E040E050E00E94B80D9E
:1012F000CA01B90164567109810991090E949B0CC8
:1013000020E030E048EC52E40E94A40EF801608333
:10131000718382839383AE014F5F5F4F67E772E013
:10132000CE010A960E94C9048C010097A1F1FC012C
:10133000848180788C60848320E030E040E251E456
:10134000C501B4010E94A40E0E94160F9B01770FE5
:10135000440B550B2650314041095109A8ECB0E02F
:101360000E94D70D27E830E040E050E00E94B80D21
:10137000CA01B90164567109810991090E949B0C47
:1013800020E030E048EC52E40E94A40EF8016083B3
:10139000718382839383AE014F5F5F4F67E872E092
:1013A000CE010A960E94C9048C010097A1F1FC01AC
:1013B000848180788C60848320E030E040E251E4D6
:1013C000C701B6010E94A40E0E94160F9B01770F61
:1013D000440B550B2950314041095109A8ECB0E0AC
:1013E0000E94D70D2BE830E040E050E00E94B80D9D
:1013F000CA01B90164567109810991090E949B0CC7
:1014000020E030E048EC52E40E94A40EF801608332
:1014100071838283938380916B030E948602209163
:10142000750330917603CC24DD24C21AD30A0D2C27
:10143000000CEE08FF08032E000C440B550B2C1972
:101440003D094E095F09DC010E94E20D20E034E015
:1014500040E050E00E94B80DC20ED31EE41EF51EFF
:10146000D0927003C0926F03C601D7FE04C08827D4
:1014700099278C199D092091730330917403821769
:10148000930724F41092700310926F0300916F037E
:1014900010917003AE014F5F5F4F67E972E0CE01BC
:1014A0000A960E94C904BC01C8010E9434048091BC
:1014B0006D030E9486022091750330917603CC243F
:1014C000DD24C21AD30A0D2C000CEE08FF08032EEF
:1014D000000C440B550B2C193D094E095F09DC012A
:1014E0000E94E20D20E034E040E050E00E94B80DA0
:1014F000C20ED31EE41EF51ED0927203C092710379
:10150000C601D7FE04C0882799278C199D09209110
:101510007303309174038217930724F410927203BB
:10152000109271030091710310917203AE014F5F2D
:101530005F4F67EA72E0CE010A960E94C904BC01BF
:10154000C8010E94340410916A03AE014F5F5F4FDF
:1015500067EB72E0CE010A960E94C904FC01892B58
:1015600029F09481907896609483108342E050E053
:101570006DEB72E08BEC92E00E94FD020E94C802CB
:10158000CE5FDD4F0FB6F894DEBF0FBECDBFDF914B
:10159000CF911F910F91FF90EF90DF90CF90BF9070
:1015A000AF909F908F907F906F905F904F90089535
:1015B0001F920F920FB60F9211242F933F938F9388
:1015C0009F93AF93BF938091C3029091C402A09167
:1015D000C502B091C6023091C20223E0230F2D371D
:1015E00058F50196A11DB11D2093C2028093C3023C
:1015F0009093C402A093C502B093C6028091C70223
:101600009091C802A091C902B091CA020196A11D91
:10161000B11D8093C7029093C802A093C902B093F2
:10162000CA02BF91AF919F918F913F912F910F90DF
:101630000FBE0F901F90189526E8230F0296A11D4C
:10164000B11DD2CF1F920F920FB60F9211240BB67D
:101650000F922F933F934F935F936F937F938F934B
:101660009F93AF93BF93EF93FF938BEC92E00E9415
:101670007103FF91EF91BF91AF919F918F917F91F6
:101680006F915F914F913F912F910F900BBE0F90F3
:101690000FBE0F901F9018951F920F920FB60F92CA
:1016A00011240BB60F922F938F939F93EF93FF9379
:1016B000E091DB02F091DC028081E091E102F091A7
:1016C000E20282FD1DC090818091E4028F5F8F73E2
:1016D0002091E502821741F0E091E402F0E0E55349
:1016E000FD4F958F8093E402FF91EF919F918F9131
:1016F0002F910F900BBE0F900FBE0F901F9018955B
:101700008081F2CFCF93DF93EBECF2E01382128271
:1017100088EE93E0A0E0B0E084839583A683B7834E
:1017200084E092E09183808385EC90E095878487C4
:1017300084EC90E09787868780EC90E0918B808B9B
:1017400081EC90E0938B828B82EC90E0958B848B84
:1017500086EC90E0978B868B118E128E138E148EF2
:10176000CBE6D3E086E390E09983888387E390E03B
:101770009B838A831D821C821F821E8285E090E0EB
:101780009987888784E690E09B878A8760E086E374
:101790000E944A0260E08A810E944A02C8E6D3E0C1
:1017A00087E090E0998388831A8261E00E944A0270
:1017B0006A818881DF91CF910C941C02789484B562
:1017C000826084BD84B5816084BD85B5826085BD3D
:1017D00085B5816085BD80916E00816080936E00CB
:1017E00010928100809181008260809381008091BD
:1017F000810081608093810080918000816080936E
:1018000080008091B10084608093B1008091B0002D
:1018100081608093B00080919100826080939100FC
:10182000809191008160809391008091900081600F
:10183000809390008091A10082608093A1008091AC
:10184000A10081608093A1008091A00081608093BD
:10185000A00080912101826080932101809121016B
:10186000816080932101809120018160809320011B
:1018700080917A00846080937A0080917A008260FF
:1018800080937A0080917A00816080937A008091C1
:101890007A00806880937A001092C100E091DB02A8
:1018A000F091DC0282E08083E091D702F091D802CF
:1018B0001082E091D902F091DA028FEC80831092CD
:1018C000E302E091DF02F091E00286E08083E091A4
:1018D000DD02F091DE02808180618083E091DD0293
:1018E000F091DE02808188608083E091DD02F091DA
:1018F000DE02808180688083E091DD02F091DE026B
:1019000080818F7D808361E086E20E944A0261E0EF
:1019100086E20E941C0262E086E10E944A020E9466
:1019200036080E940404FBCF0E94D60C08F481E024
:101930000895E89409C097FB3EF4909580957095C2
:1019400061957F4F8F4F9F4F9923A9F0F92F96E90B
:10195000BB279395F695879577956795B795F11180
:10196000F8CFFAF4BB0F11F460FF1BC06F5F7F4F1D
:101970008F4F9F4F16C0882311F096E911C077232F
:1019800021F09EE8872F762F05C0662371F096E838
:10199000862F70E060E02AF09A95660F771F881F07
:1019A000DAF7880F9695879597F90895990F0008AB
:1019B000550FAA0BE0E8FEEF16161706E807F90721
:1019C000C0F012161306E407F50798F0621B730BBC
:1019D000840B950B39F40A2661F0232B242B252B3D
:1019E00021F408950A2609F4A140A6958FEF811DE0
:1019F000811D08950E940D0D0C947E0D0E94700DA6
:101A000038F00E94770D20F0952311F00C94670DAB
:101A10000C946D0D11240C94B20D0E948F0D70F377
:101A2000959FC1F3950F50E0551F629FF001729F83
:101A3000BB27F00DB11D639FAA27F00DB11DAA1F92
:101A4000649F6627B00DA11D661F829F2227B00DDF
:101A5000A11D621F739FB00DA11D621F839FA00D6A
:101A6000611D221F749F3327A00D611D231F849FBA
:101A7000600D211D822F762F6A2F11249F57504011
:101A80009AF0F1F088234AF0EE0FFF1FBB1F661F8C
:101A9000771F881F91505040A9F79E3F510580F055
:101AA0000C94670D0C94B20D5F3FE4F3983ED4F3B1
:101AB000869577956795B795F795E7959F5FC1F7F9
:101AC000FE2B880F911D9695879597F9089597F9A4
:101AD0009F6780E870E060E008959FEF80EC0895D4
:101AE00000240A94161617061806090608950024FD
:101AF0000A9412161306140605060895092E039477
:101B0000000C11F4882352F0BB0F40F4BF2B11F4EA
:101B100060FF04C06F5F7F4F8F4F9F4F089557FD49
:101B20009058440F551F59F05F3F71F04795880F4B
:101B300097FB991F61F09F3F79F0879508951216E2
:101B400013061406551FF2CF4695F1DF08C016168E
:101B500017061806991FF1CF86957105610508943F
:101B60000895E894BB2766277727CB0197F9089556
:101B7000052E97FB1EF400940E94CF0D57FD07D051
:101B80000E94EA0D07FC03D04EF40C94CF0D509543
:101B90004095309521953F4F4F4F5F4F0895909559
:101BA0008095709561957F4F8F4F9F4F08950E944C
:101BB0000C0EA59F900DB49F900DA49F800D911DBC
:101BC00011240895B7FF0C94D70D0E94D70D821BE6
:101BD000930B0895A1E21A2EAA1BBB1BFD010DC099
:101BE000AA1FBB1FEE1FFF1FA217B307E407F507CD
:101BF00020F0A21BB30BE40BF50B661F771F881FA9
:101C0000991F1A9469F760957095809590959B013E
:101C1000AC01BD01CF010895A29FB001B39FC001E7
:101C2000A39F700D811D1124911DB29F700D811D08
:101C30001124911D0895AA1BBB1B51E107C0AA1FC7
:101C4000BB1FA617B70710F0A61BB70B881F991F5D
:101C50005A95A9F780959095BC01CD010895EE0F96
:101C6000FF1F881F8BBF0790F691E02D19945058E5
:101C7000BB27AA270E944F0E0C947E0D0E94700D68
:101C800038F00E94770D20F039F49F3F19F426F4C4
:101C90000C946D0D0EF4E095E7FB0C94670DE92FA5
:101CA0000E948F0D58F3BA176207730784079507D0
:101CB00020F079F4A6F50C94B10D0EF4E0950B2EFE
:101CC000BA2FA02D0B01B90190010C01CA01A0018E
:101CD0001124FF27591B99F0593F50F4503E68F1E9
:101CE0001A16F040A22F232F342F4427585FF3CF2A
:101CF000469537952795A795F0405395C9F77EF4FB
:101D00001F16BA0B620B730B840BBAF09150A1F043
:101D1000FF0FBB1F661F771F881FC2F70EC0BA0FC9
:101D2000621F731F841F48F4879577956795B79551
:101D3000F7959E3F08F0B0CF9395880F08F099274C
:101D4000EE0F9795879508950E94B80E0C947E0D1E
:101D50000E94770D58F00E94700D40F029F45F3F0B
:101D600029F00C94670D51110C94B20D0C946D0D6B
:101D70000E948F0D68F39923B1F3552391F3951BBE
:101D8000550BBB27AA2762177307840738F09F5F9C
:101D90005F4F220F331F441FAA1FA9F335D00E2E09
:101DA0003AF0E0E832D091505040E695001CCAF776
:101DB0002BD0FE2F29D0660F771F881FBB1F261739
:101DC00037074807AB07B0E809F0BB0B802DBF0110
:101DD000FF2793585F4F3AF09E3F510578F00C94DF
:101DE000670D0C94B20D5F3FE4F3983ED4F38695F3
:101DF00077956795B795F7959F5FC9F7880F911D00
:101E00009695879597F90895E1E0660F771F881FEB
:101E1000BB1F621773078407BA0720F0621B730B9E
:101E2000840BBA0BEE1F88F7E09508950E941D0FF2
:101E30006894B1110C94B20D08950E94970D88F02A
:101E40009F5798F0B92F9927B751B0F0E1F0660F7E
:101E5000771F881F991F1AF0BA95C9F714C0B130BF
:101E600091F00E94B10DB1E008950C94B10D672F6F
:101E7000782F8827B85F39F0B93FCCF386957795EE
:101E80006795B395D9F73EF49095809570956195D7
:101E90007F4F8F4F9F4F08950E94D60C08F48FEF0D
:101EA0000895FB01DC018D91019080190110D9F397
:081EB000990B0895F894FFCF8F
:101EB800000000009303FD022A03E0035B033903DB
:101EC8004D032F2F22225C5C6208660C6E0A720D8D
:101ED8007409005C7530303030006E756C6C0074BD
:101EE8007275650066616C73650062746E5F313887
:101EF800300062746E5F75700062746E5F6C656648
:101F0800740062746E5F72696768740062746E5FF1
:101F180073656C65637400616363656C65726F6D8E
:101F2800657465725F5800616363656C65726F6D97
:101F3800657465725F5900616363656C65726F6D86
:101F4800657465725F5A00706F74656E74696F6D41
:101F5800657465725F5800706F74656E74696F6D33
:101F6800657465725F59006D6F746F72000D0A00B9
:00000001FF
