:100000000C9459010C948A010C948A010C948A0175
:100010000C948A010C948A010C948A010C948A0134
:100020000C948A010C948A010C948A010C948A0124
:100030000C948A010C948A010C948A010C948A0114
:100040000C948A010C948A010C948A010C948A0104
:100050000C948A010C948A010C948A010C94540E1D
:100060000C948A010C94C80E0C949E0E0C948A0178
:100070000C948A010C948A010C948A010C948A01D4
:100080000C948A010C948A010C948A010C948A01C4
:100090000C948A010C948A010C948A010C948A01B4
:1000A0000C948A010C948A010C948A010C948A01A4
:1000B0000C948A010C948A010C948A010C948A0194
:1000C0000C948A010C948A010C948A010C948A0184
:1000D0000C948A010C948A010C948A010C948A0174
:1000E0000C948A010C94EB010C94B4010C94B001B3
:1000F0000C94E5010C94BF010C945E030C94FE0E6D
:100100000C9426030C9418030C94C8020C94E1017F
:100110000C94D7010C94EA010C94CF010C940403C5
:100120000C94B8010C94C5010C94AB030C94C90158
:100130000C94AA010C94DD010C94D3010C94F502EB
:100140000C94EF010C94BC01CDCCCC3D0AD7233CE0
:1001500017B7D13877CC2B329595E6241FB14F0ACB
:100160000000803FCDCCCC3D6F12833A95BFD63393
:100170007D1D9026B3CE010C000020410000C84236
:1001800000401C4620BCBE4CCA1B0E5AAEC59D7416
:1001900000002100240027002A002D003000330039
:1001A00001010000040107010A01000022002500EE
:1001B00028002B002E003100340002010000050150
:1001C00008010B01000020002300260029002C005C
:1001D0002F0032000001000003010601090105059E
:1001E0000505070508080808020202020A0A0808AD
:1001F00004040404010101010101010103030303DB
:1002000003030303040707070C0C0C0C0C0C0C0C69
:100210000202020206060606060606060B0B0B0B7A
:100220000B0B0B0B0102102020080810204010209F
:1002300040800201020108040201010204081020AA
:1002400040808040201008040201800402018040A8
:100250002010080402010804020101020408102011
:100260004080010204081020408000000A0B0209AF
:100270000C0D0E0807030401000000000000000040
:10028000000000000000000000000000000000006E
:10029000000000000000121110000000000000002B
:1002A000000000000000000000000000000000004E
:1002B000FE0E11241FBECFEFD1E2DEBFCDBF00E0A6
:1002C0000CBF12E0A0E0B2E0E0EBF5E200E00BBF13
:1002D00002C007900D92A83DB107D9F723E0A8ED21
:1002E000B2E001C01D92AF38B207E1F711E0C9E5F5
:1002F000D1E000E006C021970109802FFE010E9495
:10030000AB11C835D10780E00807A9F70E945A0F42
:100310000C94D6120C9400008150823108F05AC01F
:10032000E82FF0E08827E856FE4F8F4F0C94AB1172
:10033000B801BC01AA01B001B401EA01BF01C501C5
:10034000C901CF01D301D701DD01E101EA01E501D6
:10035000EB01EF01809180008F77809380000895FA
:10036000809180008F7DF9CF80918000877FF5CFCD
:1003700084B58F7784BD089584B58F7DFBCF809140
:10038000B0008F778093B00008958091B0008F7D8A
:10039000F9CF809190008F7780939000089580919D
:1003A00090008F7DF9CF80919000877FF5CF80916D
:1003B000A0008F778093A00008958091A0008F7D8A
:1003C000F9CF8091A000877FF5CF809120018F77B2
:1003D000809320010895809120018F7DF9CF809135
:1003E0002001877FF5CFCF93DF93282F30E0F901ED
:1003F000E659FD4F8491F901EC5DFD4FD491F9016F
:10040000E252FE4FC491CC23A1F081110E948C01D5
:10041000EC2FF0E0EE0FFF1FEC53FE4FA591B491CF
:10042000EC91ED2381E090E009F480E0DF91CF9141
:10043000089580E090E0FACF1F93CF93DF93282FA9
:1004400030E0F901E659FD4F8491F901EC5DFD4F73
:10045000D491F901E252FE4FC491CC23A9F0162F9A
:1004600081110E948C01EC2FF0E0EE0FFF1FE6558A
:10047000FE4FA591B4918FB7F894EC91111108C07B
:10048000D095DE23DC938FBFDF91CF911F9108952C
:10049000DE2BF8CFCF93DF9390E0FC01EC5DFD4FB6
:1004A000249182529E4FFC0184918823C9F090E0F0
:1004B000880F991FFC01E057FE4FA591B491FC01F4
:1004C000E655FE4FC591D49161110DC09FB7F894C8
:1004D0008C91209582238C938881282328839FBF29
:1004E000DF91CF910895623051F49FB7F8943C9119
:1004F000822F809583238C93E8812E2BEFCF8FB7AB
:10050000F894EC912E2B2C938FBFEACF863308F012
:10051000865320917B00982F9870277F922B909381
:100520007B008770806480937C0080917A00806477
:1005300080937A0080917A0086FDFCCF80917800CC
:100540009091790008953FB7F8948091DF029091DF
:10055000E002A091E102B091E20226B5A89B05C09D
:100560002F3F19F00196A11DB11D3FBFBA2FA92F32
:10057000982F8827BC01CD01620F711D811D911D2F
:1005800042E0660F771F881F991F4A95D1F708959B
:10059000AF92BF92CF92DF92EF92FF920F931F9391
:1005A000CF93DF936C017B018B01040F151FEB01CF
:1005B0005E01AE18BF08C017D10759F06991D60186
:1005C000ED91FC910190F081E02DC6011995892BE8
:1005D00079F7C501DF91CF911F910F91FF90EF90B7
:1005E000DF90CF90BF90AF900895FC01538D448D64
:1005F000252F30E0842F90E0821B930B541710F0CE
:10060000CF96089501970895FC01918D828D9817DA
:1006100061F0A28DAE0FBF2FB11D5D968C91928DB2
:100620009F5F9F73928F90E008958FEF9FEF0895E3
:10063000FC01918D828D981731F0828DE80FF11DAC
:10064000858D90E008958FEF9FEF0895FC01918DC7
:10065000228D892F90E0805C9F4F821B91098F73C0
:100660009927089583EE92E00E94260321E0892BCA
:1006700009F420E0822F0895FC01A48DA80FB92F62
:10068000B11DA35ABF4F2C91848D90E001968F73BA
:100690009927848FA689B7892C93A089B1898C91D9
:1006A000837080648C93938D848D981306C0028828
:1006B000F389E02D80818F7D80830895EF92FF92F2
:1006C0000F931F93CF93DF93EC0181E0888F9B8D75
:1006D0008C8D98131AC0E889F989808185FF15C02F
:1006E0009FB7F894EE89FF896083E889F989808152
:1006F0008370806480839FBF81E090E0DF91CF9121
:100700001F910F91FF90EF900895F62E0B8D10E042
:100710000F5F1F4F0F731127E02E8C8D8E110CC0B1
:100720000FB607FCFACFE889F989808185FFF5CFFC
:10073000CE010E943C03F1CFEB8DEC0FFD2FF11D9C
:10074000E35AFF4FF0829FB7F8940B8FEA89FB8939
:1007500080818062CFCFCF93DF93EC01888D882397
:10076000B9F0AA89BB89E889F9898C9185FD03C014
:10077000808186FD0DC00FB607FCF7CF8C9185FFF9
:10078000F2CF808185FFEDCFCE010E943C03E9CFFF
:10079000DF91CF91089581E08093D90208950E945E
:1007A0003203882319F081E08093D90280E090E041
:1007B000892B49F080E090E0892B29F00E9400000D
:1007C00081110E94000080E090E0892B49F080E0D8
:1007D00090E0892B29F00E94000081110E94000006
:1007E00080E090E0892B49F080E090E0892B29F0AF
:1007F0000E94000081110C940000089508959C014E
:10080000FB01309761F0948190789A609483C901DC
:10081000330FAA0BBB0B80839183A283B38308950C
:10082000CF93DF93EC0188819981DC01ED91FC91FC
:100830000190F081E02D19952A813B81820F931F51
:100840009B838A83DF91CF910895CF93DF93EC014F
:1008500088819981DC01ED91FC910280F381E02D8A
:1008600019952A813B81820F931F9B838A83DF9195
:10087000CF9108958F929F92AF92BF92CF92DF92C5
:10088000EF92FF920F931F93CF93DF93CDB7DEB715
:1008900066970FB6F894DEBF0FBECDBF6C018E0118
:1008A000095E1F4F78018AE0882E912CA12CB12C73
:1008B000CB01BA01A50194010E946611942F852FE6
:1008C000605DF80162938F01A901692F782F4115AE
:1008D00051056105710561F7A7014E1B5F0BBF0153
:1008E000C6010E94250466960FB6F894DEBF0FBEBF
:1008F000CDBFDF91CF911F910F91FF90EF90DF90CF
:10090000CF90BF90AF909F908F9008954F925F923D
:100910006F927F928F929F92AF92BF92DF92EF92EF
:10092000FF920F931F93CF93DF9300D01F921F92DC
:10093000CDB7DEB7FC01892B39F084818F77863003
:10094000C1F028F48430D8F590E080E014C08A30FB
:1009500039F18C3009F476C18830B1F7808191810A
:10096000A281B381811520E89207A105B10560F746
:1009700002C0808190E00F900F900F900F900F9029
:10098000DF91CF911F910F91FF90EF90DF90BF907B
:10099000AF909F908F907F906F905F904F90089551
:1009A00080819181A281B381AC01BD0150586F4F0C
:1009B0007F4F411551056140710530F6DCCF019044
:1009C000F081E02D1D8280818B32D1F18D32C9F50D
:1009D0003196EE24E394808190ED980F9A3018F0D0
:1009E0008E3209F05DC08F0160E070E0CB01F8014C
:1009F0002191A0ED8A2E820E49E0481520F16A3936
:100A000059E97507850759E1950738F5AAE0B0E07F
:100A10009B01AC010E945311912CB12CA12C2401FB
:100A200035014094509460947094461657066806B9
:100A3000790698F0680D791D8A1D9B1D8F01D7CF0F
:100A40003196E12CC8CF211108C0EE2071F1613040
:100A500071058105A0E89A07A0F0F12CEAE08E2E3E
:100A6000912CA12CB12C6115710530E883079105FB
:100A700018F1A50194010E946611CA01B901F3940D
:100A8000F2CF2AE02D839B01AC0188279927DC0156
:100A9000821B930BA40BB50B89839A83AB83BC8316
:100AA000CE0101960E94860466CF28E02D836983DB
:100AB0007A838B839C83F4CFF801D8012D918D012B
:100AC00030ED320F3A3010F4F394F6CF2E3201F5B8
:100AD0008F010F5F1F4FF8010F5F1F4F208150EDF7
:100AE000D52ED20EB9E0BD1598F06C3C2CEC7207F7
:100AF0002CE08207910578F7AAE0B0E09B01AC01F9
:100B00000E9453116D0D711D811D911DFA94E3CF4B
:100B100020812F7D10E000E0253409F050C02181B4
:100B20002D32B1F53296BB24B394DF0110E000E022
:100B30002F2D0F2C000C330B4AE0A42EFD01DD906D
:100B400040ED4D0D4A30B0F5A09EA001A19E500D84
:100B500011240D2DDD0C110B00531109040F151F6D
:100B6000A801420F531F4732510544F3BB20B9F08F
:100B700080E090E0A0E0B0E8E11003C080E090E009
:100B8000DC012CE02D8389839A83AB83BC8388CFDF
:100B90002B3219F03196B12CC8CF3296FCCF80E0C1
:100BA00090E0A0E8BFEFE110ECCF80E090E0A0E89B
:100BB000BFE7E7CFBB2019F01195019511092081FE
:100BC00021116ECF0F0D111DF7FC1A950E94151003
:100BD00010161106F4F4F12C00FF0CC034E0F39E63
:100BE000F0011124E858FE4F25913591459154911B
:100BF0000E94761015950795F3940115110561F77C
:100C0000E11090582CE02D8369837A838B839C8339
:100C100047CF119501951109F12C0115110581F3AB
:100C200000FF0CC044E0F49EF0011124E85BFE4F8D
:100C300025913591459154910E947610159507950F
:100C4000F394EBCF80809180A280B38020E030E0ED
:100C500040E057ECC501B4010E94C81287FD74CE74
:100C600020E03EEF4FEF56E4C501B4010E941010A2
:100C700018160CF469CEC501B4010E949212CB0182
:100C80007ACEFC012581222339F0F8E02F02900171
:100C90001124820F931F089590E080E008950F9330
:100CA0001F93CF93DF93D0E0C0E06115710591F001
:100CB0008B01FC01C081D181209761F06E817F8121
:100CC000C8010E94CD12892B29F0CE010E94410655
:100CD000EC01F2CFCE01DF91CF911F910F910895DA
:100CE000EF92FF920F931F93CF93DF93FC018481C8
:100CF000982F9F7739F480788062848311821082E4
:100D000013821282848185FD09C080E090E0DF912A
:100D1000CF911F910F91FF90EF900895611571058C
:100D2000A1F3EA017B018F01CF010E944F060097DA
:100D300071F7EC81FD818A819B810896E817F9079C
:100D400018F481E08887E1CF3897FD83EC833097F2
:100D5000E1F2E801AA81BB81109791F0CF018A1BD3
:100D60009B0B23E0959587952A95E1F715968C9333
:100D7000FB83EA8315821482F782E682CF01C7CF14
:100D8000F983E883FB83EA83F5CFFC01248125FD09
:100D90000C944F0690E080E008958F929F92AF925E
:100DA000BF92CF92DF92EF92FF92CF93DF93FC013D
:100DB000EB01808191816281738109960E94C50651
:100DC000FC01892B49F094819F77983009F44EC03B
:100DD00030F4963009F45DC030E020E022C09A3053
:100DE00081F19C30C9F7C080D180E280F380BE01E0
:100DF000DD0F880B990B0E9417104B015C01AC01B1
:100E00009B01C701B6010E94101087FD47C0A501D4
:100E10009401C701B6010E94C812181624F522E0F9
:100E200030E081E02130310509F480E0DF91CF919D
:100E3000FF90EF90DF90CF90BF90AF909F908F90FA
:100E400008954081518162817381CE01DD0FAA0B2B
:100E5000BB0B481759076A077B0704F184179507EE
:100E6000A607B707E4F221E030E0DBCF40815181F3
:100E700062817381CE01DD0FAA0BBB0B48175907A6
:100E80006A077B0758F084179507A607B70758F736
:100E9000C6CF408150E070E060E0ECCF24E030E06D
:100EA000C0CFFB0101900020E9F73197AF01461B4D
:100EB000570B0C9425041F93CF93DF93E8E2F2E0E5
:100EC0001281112379F0329621816213F9CFEC015E
:100ED0006CE50E941004612FCE01DF91CF911F912C
:100EE0000C9410046111F9CF69E372E0DF91CF91A6
:100EF0001F910C9451072F923F924F925F926F92E5
:100F00007F928F929F92AF92BF92CF92DF92EF9299
:100F1000FF920F931F93CF93DF93CDB7DEB76C97FC
:100F20000FB6F894DEBF0FBECDBF8C011B01DC01F4
:100F300014968C9114978F77863009F492C268F5D5
:100F40008230A0F11296ED90FC901397CC90119600
:100F5000DC90843008F056C2A701B601C1010E949E
:100F60002504F101828193816C960FB6F894DEBF5F
:100F70000FBECDBFDF91CF911F910F91FF90EF90EA
:100F8000DF90CF90BF90AF909F908F907F906F90A9
:100F90005F904F903F902F9008958C3069F160F4EE
:100FA000883009F459C28A3009F43FC260E472E023
:100FB000C1010E945107E5C1803209F4ECC18034BF
:100FC000A9F76BE5C1010E941004F80100811181AD
:100FD0000115110509F4DAC1B101C8010E947B07AE
:100FE000C8010E9441068C01892B09F4CFC16CE233
:100FF000C1010E941004ECCFF801C080D180E280D2
:10100000F380A7019601C701B6010E94101081115B
:10101000CDCF20E030E0A901C701B6010E94101039
:10102000882379F0A7019601C701B6010E94B41187
:101030009B01AC01C701B6010E941010882309F47E
:10104000B5CF20E030E0A901C701B6010E94101021
:1010500087FF08C06DE2C1010E941004F7FAF09406
:10106000F7F8F09420E836E948E15BE4C701B601FF
:101070000E94C81287FD81C074E1A72EB12C00E246
:1010800010E0188E1F8AF501E858FE4F2591359122
:1010900045915491C701B6010E94C81287FD13C043
:1010A000F501E85BFE4F2591359145915491C701BB
:1010B000B6010E9476106B017C012F89388D200FBC
:1010C000311F388F2F8B1595079534E0A31AB1087F
:1010D0008CEFA8168FEFB806B1F655245A9420E08D
:1010E00030E0A901C701B6010E94C81218160CF021
:1010F0004BC02CEA35EC47E257E3C701B6010E942A
:10110000101018160CF440C0A52DB4E0AB02C001BD
:101110001124B12CA12CFC01E05AFE4F3F019C018F
:1011200028583E4F49013FEF531671F1F301EA0D84
:10113000FB1D2591359145915491C701B6010E943F
:10114000101087FF13C0F401EA0DFB1D25913591A6
:1011500045915491C701B6010E9476106B017C0144
:101160008F89988D801B910B988F8F8B1595079584
:101170005A9494E0A91AB108D6CF00E210E055E0E5
:10118000552E188E1F8AABCFC701B6010E94991247
:101190004B015C012B013C0106E080E492E4AFE0EE
:1011A000B0E0898F9A8FAB8FBC8F102F01509AE0DF
:1011B0004916510461047104C8F0698D7A8D8B8DD4
:1011C0009C8D2AE030E040E050E00E946611298FBB
:1011D0003A8F4B8F5C8FC301B2012AE030E040E0D0
:1011E00050E00E94661129013A01DFCFC501B40128
:1011F0000E9415109B01AC01C701B6010E94B311FA
:101200006B017C01698D7A8D8B8D9C8D0E941510F0
:101210009B01AC01C701B6010E9476102B013C0175
:101220000E9499126B017C010E9415109B01AC0178
:10123000C301B2010E94B3119B01AC010E94B41121
:101240000E949912C60ED71EE81EF91E898D9A8D2E
:10125000AB8DBC8DC816D906EA06FB06D8F09FEF09
:10126000891A990AA90AB90AAF89B88DAB2B39F145
:10127000BAE08B169104A104B10408F1EF89F88D4E
:101280003196F88FEF8BC12CD12C7601812C912CCB
:10129000540183942AE0422E512C612C712CC701F9
:1012A000B601A30192010E946611672B682B692B7E
:1012B00051F4111644F469017A011150F0CFC12C98
:1012C000D12C7601E7CFB501A401C1010E943A04F7
:1012D000112371F14E01F1E18F0E911C012F540188
:1012E0009AE0492E512C612C712C015068F0C701F5
:1012F000B601A30192010E946611605DD4016E9354
:101300004D0169017A01F1CF812F90E0BC01609518
:101310007095F501E81BF90B31978EE28083442725
:101320005527461B570B6A0D7B1DC1010E942504E2
:10133000EF89F88DEF2B29F165E6C1010E941004B9
:101340000F89188D17FF07C06DE2C1010E941004BC
:10135000119501951109FE0177969F018AE0E82E0B
:10136000F12CC801B7010E949711805D82938B0117
:10137000672BB9F7A9014E1B5F0BBF01C1010E948A
:101380002504D10112968D919C91EECD6DE5C101A0
:101390000E941004F6CF6BE7C1010E941004F8010F
:1013A000008111810115110559F1D8011696CC90D3
:1013B00016971796DC9062E2C1010E941004760134
:1013C000F70161917F01662321F0C1010E945B0753
:1013D000F7CF62E2C1010E9410046AE3C1010E94DA
:1013E0001004B101C8010E947B07C8010E94410698
:1013F0008C01892B29F06CE2C1010E941004D2CF2C
:101400006DE7C5CF62E2C1010E9410048601E00EC3
:10141000F11EE016F10639F0F80161918F01C1016A
:101420000E945B07F6CF62E2B2CFCD90DD90ED90E7
:10143000FC90B701A601F7FE0BC06DE2C1010E944E
:10144000100444275527BA014C195D096E097F091C
:10145000C1010E943A0485CD4D915D916D917C91C1
:10146000F7CF8C9165E472E0811102C06AE472E00A
:10147000C1010E94510775CD2F923F924F925F920A
:101480006F927F928F929F92AF92BF92CF92DF9294
:10149000EF92FF920F931F93CF93DF93CDB7DEB7F9
:1014A000C252D4400FB6F894DEBF0FBECDBFCE01FE
:1014B0000F969A8389839C838B8387EF93E08C0FAD
:1014C0009D1F9E838D8398878F8319861E868E012C
:1014D0000F5F1F4FA80160E572E08D5E93400E9490
:1014E0007006BC0190E080E00E94FF039AE0292E84
:1014F000312CC12CD12C7601460157012601370130
:101500008AE30E948602BC01990F880B990B0E9406
:1015100017109B01AC01C301B2010E94B4112B0151
:101520003C018BE30E948602BC01990F880B990B4A
:101530000E9417109B01AC01C501B4010E94B411B7
:101540004B015C018CE30E948602BC01990F880B61
:10155000990B0E9417109B01AC01C701B6010E94B4
:10156000B4116B017C0191E0291A310849F6A801F8
:1015700064E572E0CE010A960E9470061C01009795
:10158000A1F1FC01848180788C60848320E030E0CC
:1015900040E251E4C301B2010E9420120E94921263
:1015A0009B01770F440B550B2051314041095109E4
:1015B000A8ECB0E00E9453112CE730E040E050E08E
:1015C0000E943411CA01B901645671098109910957
:1015D0000E94171020E030E048EC52E40E942012F4
:1015E000F1016083718382839383A80164E672E0D2
:1015F000CE010A960E9470063C010097A1F1FC0101
:10160000848180788C60848320E030E040E251E483
:10161000C501B4010E9420120E9492129B01770F13
:10162000440B550B2650314041095109A8ECB0E05C
:101630000E94531127E830E040E050E00E9434114E
:10164000CA01B90164567109810991090E941710F4
:1016500020E030E048EC52E40E942012F301608365
:10166000718382839383A80164E772E0CE010A96B6
:101670000E9470065C010097A1F1FC0184818078D2
:101680008C60848320E030E040E251E4C701B60181
:101690000E9420120E9492129B01770F440B550B5F
:1016A0002950314041095109A8ECB0E00E94531182
:1016B0002BE830E040E050E00E943411CA01B9014B
:1016C00064567109810991090E94171020E030E0E9
:1016D00048EC52E40E942012F501608371838283FA
:1016E0009383809183030E94860220918D03309121
:1016F0008E03CC24DD24C21AD30A0D2C000CEE0874
:10170000FF08032E000C440B550B2C193D094E0904
:101710005F09DC010E945E1120E034E040E050E00F
:101720000E943411C20ED31EE41EF51ED09288030F
:10173000C0928703C601D7FE04C0882799278C1959
:101740009D0920918B0330918C038217930724F419
:101750001092880310928703E0908703F09088032B
:10176000A80164E872E0CE010A960E947006BC01EE
:10177000C7010E94FF03809185030E948602209189
:101780008D0330918E03CC24DD24C21AD30A0D2C94
:10179000000CEE08FF08032E000C440B550B2C190F
:1017A0003D094E095F09DC010E945E1120E034E032
:1017B00040E050E00E943411C20ED31EE41EF51E1C
:1017C000D0928A03C0928903C601D7FE04C088273D
:1017D00099278C199D0920918B0330918C038217D6
:1017E000930724F410928A0310928903E0908903EE
:1017F000F0908A03A8016FE872E0CE010A960E9479
:101800007006BC01C7010E94FF0380E00E948602AF
:101810007C01A8016AE972E0CE010A960E94700676
:10182000BC01C7010E94FF0385E30E94F3017C0114
:10183000A80168EA72E0CE010A960E947006BC0117
:10184000C7010E94FF0383E30E94F3017C01A8010A
:1018500060EB72E0CE010A960E947006BC01C701DF
:101860000E94FF0380E30E94F3017C01A80167EB63
:1018700072E0CE010A960E947006BC01C7010E9468
:10188000FF0382E30E94F3017C01A80160EC72E097
:10189000CE010A960E947006BC01C7010E94FF0398
:1018A00084E30E94F3017C01A8016AEC72E0CE019E
:1018B0000A960E947006BC01C7010E94FF03C15E28
:1018C000DB4F19830883CF51D44088EA92E0CF5D83
:1018D000DB4F99838883C152D44060911402709188
:1018E0001502CE01815E9B4F0E94CD06882309F42C
:1018F000DFC083EE92E0C950DC4F99838883C75FD5
:10190000D340C750DC4F19821882C95FD340BE0153
:1019100069507C4FCE010A960E947B0742E050E05E
:1019200065ED72E083EE92E00E94C8026AEC72E01C
:10193000CE010A960E94C5060E94860490930D026D
:1019400080930C0268EA72E0CE010A960E94C506F6
:101950000E948604909315028093140260EB72E05B
:10196000CE010A960E94C5060E9486049093130237
:101970008093120267EB72E0CE010A960E94C506C0
:101980000E948604909311028093100260EC72E032
:10199000CE010A960E94C5060E94860490930F020B
:1019A00080930E0264E872E0CE010A960E94C5069A
:1019B0000E94860490930B0280930A026FE872E003
:1019C000CE010A960E94C5060E94860490930902E1
:1019D0008093080264E572E0CE010A960E94C50673
:1019E0000E948604909307028093060264E672E0E8
:1019F000CE010A960E94C5060E94860490930502B5
:101A00008093040264E772E0CE010A960E94C50644
:101A10000E94860490930302809302026AE972E0B6
:101A2000CE010A960E94C5060E9486049093010288
:101A3000809300020E94A3024B015C0184E6C82E41
:101A4000D12CE12CF12C0E94A302681979098A0992
:101A50009B09683E734081059105A8F3F1E0CF1A18
:101A6000D108E108F10828EE820E23E0921EA11CA5
:101A7000B11CC114D104E104F10429F7CE5DDB4FA0
:101A80000FB6F894DEBF0FBECDBFDF91CF911F918F
:101A90000F91FF90EF90DF90CF90BF90AF909F900D
:101AA0008F907F906F905F904F903F902F90089510
:101AB000C55EDB4F19830883CB51D44080EB92E0A5
:101AC000C35EDB4F99838883CD51D440609112026D
:101AD00070911302CE01855E9B4F0E94CD0681114D
:101AE00008CFC95EDB4F19830883C751D44087EB09
:101AF00092E0C75EDB4F99838883C951D4406091DF
:101B0000100270911102CE01895E9B4F0E94CD069A
:101B10008111EFCECD5EDB4F19830883C351D440D2
:101B200080EC92E0CB5EDB4F99838883C551D44033
:101B300060910E0270910F02CE018D5E9B4F0E944C
:101B4000CD068111D6CEC15FDB4F19830883CF50FC
:101B5000D4408AEC92E0CF5EDB4F99838883C151F9
:101B6000D44060910C0270910D02CE01815F9B4FB9
:101B70000E94CD068111BDCEC55FDB4F198308835E
:101B8000CB50D44084E892E0C35FDB4F99838883D5
:101B9000CD50D44060910A0270910B02CE01855F56
:101BA0009B4F0E94CD068111A4CEC95FDB4F1983E4
:101BB0000883C750D4408FE892E0C75FDB4F99831A
:101BC0008883C950D4406091080270910902CE0107
:101BD000895F9B4F0E94CD0681118BCECD5FDB4F7D
:101BE00019830883C350D44084E592E0CB5FDB4F78
:101BF00099838883C550D440609106027091070292
:101C0000CE018D5F9B4F0E94CD06811172CEC150D7
:101C1000DC4F19830883CF5FD34084E692E0CF5F27
:101C2000DB4F99838883C150D44060910402709146
:101C30000502CE0181509C4F0E94CD06811159CEE4
:101C4000C550DC4F19830883CB5FD34084E792E013
:101C5000C350DC4F99838883CD5FD34060910202EB
:101C600070910302CE0185509C4F0E94CD068111D8
:101C700040CEC950DC4F19830883C75FD3408AE93F
:101C800092E0C750DC4F99838883C95FD34060914D
:101C9000000270910102CE0189509C4F0E94CD0636
:101CA000882309F443CE25CE1F920F920FB60F92D0
:101CB00011242F933F938F939F93AF93BF93809162
:101CC000DB029091DC02A091DD02B091DE02309146
:101CD000DA0223E0230F2D3758F50196A11DB11D1F
:101CE0002093DA028093DB029093DC02A093DD0262
:101CF000B093DE028091DF029091E002A091E102B8
:101D0000B091E2020196A11DB11D8093DF02909374
:101D1000E002A093E102B093E202BF91AF919F91E4
:101D20008F913F912F910F900FBE0F901F9018959C
:101D300026E8230F0296A11DB11DD2CF1F920F924C
:101D40000FB60F9211240BB60F922F933F934F9320
:101D50005F936F937F938F939F93AF93BF93EF9313
:101D6000FF9383EE92E00E943C03FF91EF91BF91BD
:101D7000AF919F918F917F916F915F914F913F9123
:101D80002F910F900BBE0F900FBE0F901F901895C4
:101D90001F920F920FB60F9211240BB60F922F9332
:101DA0008F939F93EF93FF93E091F302F091F402EE
:101DB0008081E091F902F091FA0282FD1DC09081CC
:101DC0008091FC028F5F8F732091FD02821741F09A
:101DD000E091FC02F0E0ED51FD4F958F8093FC0205
:101DE000FF91EF919F918F912F910F900BBE0F90CC
:101DF0000FBE0F901F9018958081F2CFCF93DF9385
:101E0000E3EEF2E01382128288EE93E0A0E0B0E00D
:101E100084839583A683B7838AE192E0918380834C
:101E200085EC90E09587848784EC90E0978786879F
:101E300080EC90E0918B808B81EC90E0938B828B97
:101E400082EC90E0958B848B86EC90E0978B868B70
:101E5000118E128E138E148EC3E8D3E086E390E0C9
:101E60009983888387E390E09B838A831D821C8209
:101E70001F821E8285E090E09987888784E690E043
:101E80009B878A8760E086E30E944A0260E08A813D
:101E90000E944A02C0E8D3E087E090E099838883FB
:101EA0001A8261E00E944A026A818881DF91CF91A3
:101EB0000C941C02789484B5826084BD84B58160E2
:101EC00084BD85B5826085BD85B5816085BD809105
:101ED0006E00816080936E0010928100809181007D
:101EE0008260809381008091810081608093810075
:101EF000809180008160809380008091B100846037
:101F00008093B1008091B00081608093B000809197
:101F10009100826080939100809191008160809314
:101F20009100809190008160809390008091A10049
:101F300082608093A1008091A10081608093A100C4
:101F40008091A00081608093A00080912101826037
:101F500080932101809121018160809321018091F2
:101F6000200181608093200180917A0084608093B9
:101F70007A0080917A00826080937A0080917A0062
:101F8000816080937A0080917A00806880937A00E3
:101F90001092C100E091F302F091F40282E080839C
:101FA000E091EF02F091F0021082E091F102F091E5
:101FB000F2028FEC80831092FB02E091F702F09125
:101FC000F80286E08083E091F502F091F6028081CC
:101FD00080618083E091F502F091F6028081886053
:101FE0008083E091F502F091F60280818068808321
:101FF000E091F502F091F60280818F7D808361E0AF
:1020000086E20E944A0261E086E20E941C0262E0CF
:1020100086E10E944A020E943C0A0E94CF03FBCF45
:102020000E94521008F481E00895E89409C097FBDB
:102030003EF490958095709561957F4F8F4F9F4F9F
:102040009923A9F0F92F96E9BB279395F6958795E3
:1020500077956795B795F111F8CFFAF4BB0F11F4A6
:1020600060FF1BC06F5F7F4F8F4F9F4F16C088234D
:1020700011F096E911C0772321F09EE8872F762F83
:1020800005C0662371F096E8862F70E060E02AF0C4
:102090009A95660F771F881FDAF7880F96958795B0
:1020A00097F90895990F0008550FAA0BE0E8FEEF85
:1020B00016161706E807F907C0F012161306E4070C
:1020C000F50798F0621B730B840B950B39F40A2605
:1020D00061F0232B242B252B21F408950A2609F4E3
:1020E000A140A6958FEF811D811D08950E94891042
:1020F0000C94FA100E94EC1038F00E94F31020F0BB
:10210000952311F00C94E3100C94E91011240C9415
:102110002E110E940B1170F3959FC1F3950F50E0A3
:10212000551F629FF001729FBB27F00DB11D639F89
:10213000AA27F00DB11DAA1F649F6627B00DA11D2F
:10214000661F829F2227B00DA11D621F739FB00DD5
:10215000A11D621F839FA00D611D221F749F332745
:10216000A00D611D231F849F600D211D822F762FDE
:102170006A2F11249F5750409AF0F1F088234AF0BB
:10218000EE0FFF1FBB1F661F771F881F9150504027
:10219000A9F79E3F510580F00C94E3100C942E118A
:1021A0005F3FE4F3983ED4F3869577956795B795AE
:1021B000F795E7959F5FC1F7FE2B880F911D9695C8
:1021C000879597F9089597F99F6780E870E060E038
:1021D00008959FEF80EC089500240A9416161706C0
:1021E00018060906089500240A9412161306140608
:1021F00005060895092E0394000C11F4882352F06B
:10220000BB0F40F4BF2B11F460FF04C06F5F7F4F22
:102210008F4F9F4F089557FD9058440F551F59F009
:102220005F3F71F04795880F97FB991F61F09F3FC3
:1022300079F087950895121613061406551FF2CFEC
:102240004695F1DF08C0161617061806991FF1CF3C
:1022500086957105610508940895E894BB27662763
:102260007727CB0197F90895052E97FB1EF400946C
:102270000E944B1157FD07D00E94661107FC03D046
:102280004EF40C944B1150954095309521953F4F4D
:102290004F4F5F4F089590958095709561957F4F52
:1022A0008F4F9F4F08950E948811A59F900DB49F56
:1022B000900DA49F800D911D11240895B7FF0C94DB
:1022C00053110E945311821B930B0895A1E21A2E01
:1022D000AA1BBB1BFD010DC0AA1FBB1FEE1FFF1FCA
:1022E000A217B307E407F50720F0A21BB30BE40B1A
:1022F000F50B661F771F881F991F1A9469F7609561
:102300007095809590959B01AC01BD01CF0108951A
:10231000A29FB001B39FC001A39F700D811D112426
:10232000911DB29F700D811D1124911D0895AA1B4E
:10233000BB1B51E107C0AA1FBB1FA617B70710F0B0
:10234000A61BB70B881F991F5A95A9F780959095E2
:10235000BC01CD010895EE0FFF1F881F8BBF0790B2
:10236000F691E02D19945058BB27AA270E94CB1153
:102370000C94FA100E94EC1038F00E94F31020F038
:1023800039F49F3F19F426F40C94E9100EF4E0950B
:10239000E7FB0C94E310E92F0E940B1158F3BA17D6
:1023A000620773078407950720F079F4A6F50C946B
:1023B0002D110EF4E0950B2EBA2FA02D0B01B901B3
:1023C00090010C01CA01A0011124FF27591B99F0AB
:1023D000593F50F4503E68F11A16F040A22F232FB7
:1023E000342F4427585FF3CF469537952795A79507
:1023F000F0405395C9F77EF41F16BA0B620B730BAE
:10240000840BBAF09150A1F0FF0FBB1F661F771F1E
:10241000881FC2F70EC0BA0F621F731F841F48F4D3
:10242000879577956795B795F7959E3F08F0B0CF5C
:102430009395880F08F09927EE0F97958795089543
:102440000E9434120C94FA100E94F31058F00E946B
:10245000EC1040F029F45F3F29F00C94E310511187
:102460000C942E110C94E9100E940B1168F399231F
:10247000B1F3552391F3951B550BBB27AA27621780
:102480007307840738F09F5F5F4F220F331F441F8D
:10249000AA1FA9F335D00E2E3AF0E0E832D09150C1
:1024A0005040E695001CCAF72BD0FE2F29D0660FAE
:1024B000771F881FBB1F261737074807AB07B0E8F1
:1024C00009F0BB0B802DBF01FF2793585F4F3AF0F7
:1024D0009E3F510578F00C94E3100C942E115F3F51
:1024E000E4F3983ED4F3869577956795B795F7957D
:1024F0009F5FC9F7880F911D9695879597F9089565
:10250000E1E0660F771F881FBB1F62177307840700
:10251000BA0720F0621B730B840BBA0BEE1F88F70F
:10252000E09508950E9499126894B1110C942E11AF
:1025300008950E94131188F09F5798F0B92F99279A
:10254000B751B0F0E1F0660F771F881F991F1AF09E
:10255000BA95C9F714C0B13091F00E942D11B1E0C5
:1025600008950C942D11672F782F8827B85F39F0C4
:10257000B93FCCF3869577956795B395D9F73EF437
:1025800090958095709561957F4F8F4F9F4F0895DF
:102590000E94521008F48FEF0895FB01DC018D9129
:1025A000019080190110D9F3990B0895F894FFCF89
:1025B0000100010001000100010001000100010013
:1025C000010001000100000000005E03C802F502E6
:1025D000AB032603040318032F2F22225C5C62083E
:1025E000660C6E0A720D7409005C75303030300074
:1025F0006E756C6C00747275650066616C73650055
:102600006C656400616363656C65726F6D657465AC
:10261000725F5800616363656C65726F6D657465A8
:10262000725F5900616363656C65726F6D65746597
:10263000725F5A006A6F79737469636B5F58006ADE
:102640006F79737469636B5F5900706F74656E7432
:10265000696F6D657465720062746E5F3138300049
:1026600062746E5F75700062746E5F6C6566740094
:1026700062746E5F72696768740062746E5F73651E
:082680006C656374000D0A0093
:00000001FF
