:100000000C9459010C948A010C948A010C948A0175
:100010000C948A010C948A010C948A010C948A0134
:100020000C948A010C948A010C948A010C948A0124
:100030000C948A010C948A010C948A010C948A0114
:100040000C948A010C948A010C948A010C948A0104
:100050000C948A010C948A010C948A010C94100F60
:100060000C948A010C94840F0C945A0F0C948A01FE
:100070000C948A010C948A010C948A010C948A01D4
:100080000C948A010C948A010C948A010C948A01C4
:100090000C948A010C948A010C948A010C948A01B4
:1000A0000C948A010C948A010C948A010C948A01A4
:1000B0000C948A010C948A010C948A010C948A0194
:1000C0000C948A010C948A010C948A010C948A0184
:1000D0000C948A010C948A010C948A010C948A0174
:1000E0000C948A010C94D3010C94DD030C94CF0181
:1000F0000C94BA0F0C9436030C9458030C94BC0166
:100100000C94AA010C94E1010C94B4010C9490039A
:100110000C94BF010C94C9010C94FA020C94EA01EE
:100120000C94EB010C94E5010C94B0010C94B80113
:100130000C94DD010C94C5010C944A030C94D70176
:100140000C9427030C94EF01CDCCCC3D0AD7233C73
:1001500017B7D13877CC2B329595E6241FB14F0ACB
:100160000000803FCDCCCC3D6F12833A95BFD63393
:100170007D1D9026B3CE010C000020410000C84236
:1001800000401C4620BCBE4CCA1B0E5AAEC59D7416
:1001900000002100240027002A002D003000330039
:1001A00001010000040107010A01000022002500EE
:1001B00028002B002E003100340002010000050150
:1001C00008010B01000020002300260029002C005C
:1001D0002F0032000001000003010601090105059E
:1001E0000505070508080808020202020A0A0808AD
:1001F00004040404010101010101010103030303DB
:1002000003030303040707070C0C0C0C0C0C0C0C69
:100210000202020206060606060606060B0B0B0B7A
:100220000B0B0B0B0102102020080810204010209F
:1002300040800201020108040201010204081020AA
:1002400040808040201008040201800402018040A8
:100250002010080402010804020101020408102011
:100260004080010204081020408000000A0B0209AF
:100270000C0D0E0807030401000000000000000040
:10028000000000000000000000000000000000006E
:10029000000000000000121110000000000000002B
:1002A000000000000000000000000000000000004E
:1002B000BA0F11241FBECFEFD1E2DEBFCDBF00E0E9
:1002C0000CBF12E0A0E0B2E0E8E9F7E200E00BBF0B
:1002D00002C007900D92AA3DB107D9F723E0AAED1D
:1002E000B2E001C01D92A139B207E1F711E0C9E502
:1002F000D1E000E006C021970109802FFE010E9495
:100300009F12C835D10780E00807A9F70E94161090
:100310000C94CA130C9400008150823108F05AC02A
:10032000E82FF0E08827E856FE4F8F4F0C949F127D
:10033000B801BC01AA01B001B401EA01BF01C501C5
:10034000C901CF01D301D701DD01E101EA01E501D6
:10035000EB01EF01809180008F77809380000895FA
:10036000809180008F7DF9CF80918000877FF5CFCD
:1003700084B58F7784BD089584B58F7DFBCF809140
:10038000B0008F778093B00008958091B0008F7D8A
:10039000F9CF809190008F7780939000089580919D
:1003A00090008F7DF9CF80919000877FF5CF80916D
:1003B000A0008F778093A00008958091A0008F7D8A
:1003C000F9CF8091A000877FF5CF809120018F77B2
:1003D000809320010895809120018F7DF9CF809135
:1003E0002001877FF5CFCF93DF93282F30E0F901ED
:1003F000E659FD4F8491F901EC5DFD4FD491F9016F
:10040000E252FE4FC491CC23A1F081110E948C01D5
:10041000EC2FF0E0EE0FFF1FEC53FE4FA591B491CF
:10042000EC91ED2381E090E009F480E0DF91CF9141
:10043000089580E090E0FACF1F93CF93DF93282FA9
:1004400030E0F901E659FD4F8491F901EC5DFD4F73
:10045000D491F901E252FE4FC491CC23A9F0162F9A
:1004600081110E948C01EC2FF0E0EE0FFF1FE6558A
:10047000FE4FA591B4918FB7F894EC91111108C07B
:10048000D095DE23DC938FBFDF91CF911F9108952C
:10049000DE2BF8CFCF93DF9390E0FC01EC5DFD4FB6
:1004A000249182529E4FFC0184918823C9F090E0F0
:1004B000880F991FFC01E057FE4FA591B491FC01F4
:1004C000E655FE4FC591D49161110DC09FB7F894C8
:1004D0008C91209582238C938881282328839FBF29
:1004E000DF91CF910895623051F49FB7F8943C9119
:1004F000822F809583238C93E8812E2BEFCF8FB7AB
:10050000F894EC912E2B2C938FBFEACF863308F012
:10051000865320917B00982F9870277F922B909381
:100520007B008770806480937C0080917A00806477
:1005300080937A0080917A0086FDFCCF80917800CC
:100540009091790008953FB7F8948091E1029091DD
:10055000E202A091E302B091E40226B5A89B05C097
:100560002F3F19F00196A11DB11D3FBFBA2FA92F32
:10057000982F8827BC01CD01620F711D811D911D2F
:1005800042E0660F771F881F991F4A95D1F708959B
:100590008F929F92AF92BF92CF92DF92EF92FF9293
:1005A0004B015C010E94A3026B017C010E94A3022B
:1005B0006C197D098E099F09683E7340810591057C
:1005C000A8F321E0821A9108A108B10888EEC80EAC
:1005D00083E0D81EE11CF11C81149104A104B10434
:1005E00029F7FF90EF90DF90CF90BF90AF909F9052
:1005F0008F900895AF92BF92CF92DF92EF92FF92C9
:100600000F931F93CF93DF936C017B018B01040F3A
:10061000151FEB015E01AE18BF08C017D10759F0D6
:100620006991D601ED91FC910190F081E02DC60118
:100630001995892B79F7C501DF91CF911F910F9102
:10064000FF90EF90DF90CF90BF90AF900895FC01A6
:10065000538D448D252F30E0842F90E0821B930B27
:10066000541710F0CF96089501970895FC01918DCD
:10067000828D981761F0A28DAE0FBF2FB11D5D96D0
:100680008C91928D9F5F9F73928F90E008958FEF72
:100690009FEF0895FC01918D828D981731F0828D26
:1006A000E80FF11D858D90E008958FEF9FEF08957D
:1006B000FC01918D228D892F90E0805C9F4F821BE1
:1006C00091098F739927089585EE92E00E9458034F
:1006D00021E0892B09F420E0822F0895FC01A48DEC
:1006E000A80FB92FB11DA35ABF4F2C91848D90E054
:1006F00001968F739927848FA689B7892C93A08937
:10070000B1898C91837080648C93938D848D9813C0
:1007100006C00288F389E02D80818F7D8083089553
:10072000EF92FF920F931F93CF93DF93EC0181E041
:10073000888F9B8D8C8D98131AC0E889F9898081E8
:1007400085FF15C09FB7F894EE89FF896083E8891B
:10075000F98980818370806480839FBF81E090E00D
:10076000DF91CF911F910F91FF90EF900895F62E9A
:100770000B8D10E00F5F1F4F0F731127E02E8C8D34
:100780008E110CC00FB607FCFACFE889F989808179
:1007900085FFF5CFCE010E946E03F1CFEB8DEC0FFC
:1007A000FD2FF11DE35AFF4FF0829FB7F8940B8F96
:1007B000EA89FB8980818062CFCFCF93DF93EC0100
:1007C000888D8823B9F0AA89BB89E889F9898C9139
:1007D00085FD03C0808186FD0DC00FB607FCF7CFF5
:1007E0008C9185FFF2CF808185FFEDCFCE010E94F5
:1007F0006E03E9CFDF91CF91089581E08093DB0212
:1008000008950E946403882319F081E08093DB023D
:1008100080E090E0892B49F080E090E0892B29F07E
:100820000E94000081110E94000080E090E0892B6E
:1008300049F080E090E0892B29F00E9400008111AE
:100840000E94000080E090E0892B49F080E090E079
:10085000892B29F00E94000081110C94000008955A
:1008600008959C01FB01309761F0948190789A6023
:100870009483C901330FAA0BBB0B80839183A2839E
:10088000B3830895CF93DF93EC0188819981DC01D4
:10089000ED91FC910190F081E02D19952A813B8129
:1008A000820F931F9B838A83DF91CF910895CF930B
:1008B000DF93EC0188819981DC01ED91FC9102804C
:1008C000F381E02D19952A813B81820F931F9B8331
:1008D0008A83DF91CF9108958F929F92AF92BF92BA
:1008E000CF92DF92EF92FF920F931F93CF93DF93FC
:1008F000CDB7DEB766970FB6F894DEBF0FBECDBF9B
:100900006C018E01095E1F4F78018AE0882E912CC0
:10091000A12CB12CCB01BA01A50194010E945A125D
:10092000942F852F605DF80162938F01A901692FD3
:10093000782F411551056105710561F7A7014E1B1F
:100940005F0BBF01C6010E94570466960FB6F8946C
:10095000DEBF0FBECDBFDF91CF911F910F91FF90F2
:10096000EF90DF90CF90BF90AF909F908F900895C1
:100970004F925F926F927F928F929F92AF92BF92AF
:10098000DF92EF92FF920F931F93CF93DF9300D0EC
:100990001F921F92CDB7DEB7FC01892B39F08481FD
:1009A0008F778630C1F028F48430D8F590E080E06D
:1009B00014C08A3039F18C3009F476C18830B1F72F
:1009C00080819181A281B381811520E89207A105E0
:1009D000B10560F702C0808190E00F900F900F90FA
:1009E0000F900F90DF91CF911F910F91FF90EF909B
:1009F000DF90BF90AF909F908F907F906F905F90AF
:100A00004F90089580819181A281B381AC01BD0195
:100A100050586F4F7F4F411551056140710530F6B9
:100A2000DCCF0190F081E02D1D8280818B32D1F1ED
:100A30008D32C9F53196EE24E394808190ED980FC4
:100A40009A3018F08E3209F05DC08F0160E070E0DE
:100A5000CB01F8012191A0ED8A2E820E49E04815C4
:100A600020F16A3959E97507850759E1950738F585
:100A7000AAE0B0E09B01AC010E944712912CB12C7E
:100A8000A12C240135014094509460947094461632
:100A900057066806790698F0680D791D8A1D9B1D1A
:100AA0008F01D7CF3196E12CC8CF211108C0EE209D
:100AB00071F1613071058105A0E89A07A0F0F12C71
:100AC000EAE08E2E912CA12CB12C6115710530E835
:100AD0008307910518F1A50194010E945A12CA01D9
:100AE000B901F394F2CF2AE02D839B01AC01882752
:100AF0009927DC01821B930BA40BB50B89839A8386
:100B0000AB83BC83CE0101960E94B80466CF28E077
:100B10002D8369837A838B839C83F4CFF801D8017A
:100B20002D918D0130ED320F3A3010F4F394F6CF61
:100B30002E3201F58F010F5F1F4FF8010F5F1F4F1E
:100B4000208150EDD52ED20EB9E0BD1598F06C3C49
:100B50002CEC72072CE08207910578F7AAE0B0E050
:100B60009B01AC010E9447126D0D711D811D911DED
:100B7000FA94E3CF20812F7D10E000E0253409F0C6
:100B800050C021812D32B1F53296BB24B394DF01E0
:100B900010E000E02F2D0F2C000C330B4AE0A42EA8
:100BA000FD01DD9040ED4D0D4A30B0F5A09EA00155
:100BB000A19E500D11240D2DDD0C110B00531109B8
:100BC000040F151FA801420F531F4732510544F36C
:100BD000BB20B9F080E090E0A0E0B0E8E11003C0F5
:100BE00080E090E0DC012CE02D8389839A83AB8345
:100BF000BC8388CF2B3219F03196B12CC8CF3296F6
:100C0000FCCF80E090E0A0E8BFEFE110ECCF80E007
:100C100090E0A0E8BFE7E7CFBB2019F01195019560
:100C20001109208121116ECF0F0D111DF7FC1A95AE
:100C30000E94091110161106F4F4F12C00FF0CC0EB
:100C400034E0F39EF0011124E858FE4F25913591D0
:100C5000459154910E946A1115950795F3940115D9
:100C6000110561F7E11090582CE02D8369837A8398
:100C70008B839C8347CF119501951109F12C0115A8
:100C8000110581F300FF0CC044E0F49EF001112433
:100C9000E85BFE4F25913591459154910E946A1170
:100CA00015950795F394EBCF80809180A280B38057
:100CB00020E030E040E057ECC501B4010E94BC13D5
:100CC00087FD74CE20E03EEF4FEF56E4C501B4013E
:100CD0000E94041118160CF469CEC501B4010E94DB
:100CE0008613CB017ACEFC012581222339F0F8E06E
:100CF0002F0290011124820F931F089590E080E04D
:100D000008950F931F93CF93DF93D0E0C0E0611558
:100D1000710591F08B01FC01C081D181209761F0B8
:100D20006E817F81C8010E94C113892B29F0CE01F9
:100D30000E947306EC01F2CFCE01DF91CF911F919B
:100D40000F910895EF92FF920F931F93CF93DF932C
:100D5000FC018481982F9F7739F4807880628483A6
:100D60001182108213821282848185FD09C080E085
:100D700090E0DF91CF911F910F91FF90EF90089538
:100D800061157105A1F3EA017B018F01CF010E947A
:100D90008106009771F7EC81FD818A819B8108961D
:100DA000E817F90718F481E08887E1CF3897FD83C9
:100DB000EC833097E1F2E801AA81BB81109791F0B2
:100DC000CF018A1B9B0B23E0959587952A95E1F728
:100DD00015968C93FB83EA8315821482F782E68250
:100DE000CF01C7CFF983E883FB83EA83F5CFFC010A
:100DF000248125FD0C94810690E080E008958F9277
:100E00009F92AF92BF92CF92DF92EF92FF92CF93D9
:100E1000DF93FC01EB0180819181628173810996EE
:100E20000E94F706FC01892B49F094819F77983046
:100E300009F44EC030F4963009F45DC030E020E093
:100E400022C09A3081F19C30C9F7C080D180E28005
:100E5000F380BE01DD0F880B990B0E940B114B0133
:100E60005C01AC019B01C701B6010E94041187FD22
:100E700047C0A5019401C701B6010E94BC13181612
:100E800024F522E030E081E02130310509F480E0F2
:100E9000DF91CF91FF90EF90DF90CF90BF90AF9018
:100EA0009F908F9008954081518162817381CE011E
:100EB000DD0FAA0BBB0B481759076A077B0704F124
:100EC00084179507A607B707E4F221E030E0DBCFEF
:100ED0004081518162817381CE01DD0FAA0BBB0B72
:100EE000481759076A077B0758F084179507A60724
:100EF000B70758F7C6CF408150E070E060E0ECCF14
:100F000024E030E0C0CFFB0101900020E9F73197E9
:100F1000AF01461B570B0C9457041F93CF93DF93DD
:100F2000E9E2F2E01281112379F032962181621315
:100F3000F9CFEC016CE50E944204612FCE01DF91F4
:100F4000CF911F910C9442046111F9CF6AE372E0D2
:100F5000DF91CF911F910C9483072F923F924F9274
:100F60005F926F927F928F929F92AF92BF92CF9239
:100F7000DF92EF92FF920F931F93CF93DF93CDB742
:100F8000DEB76C970FB6F894DEBF0FBECDBF8C01F5
:100F90001B01DC0114968C9114978F77863009F42D
:100FA00092C268F58230A0F11296ED90FC901397F2
:100FB000CC901196DC90843008F056C2A701B6019F
:100FC000C1010E945704F101828193816C960FB692
:100FD000F894DEBF0FBECDBFDF91CF911F910F916F
:100FE000FF90EF90DF90CF90BF90AF909F908F9049
:100FF0007F906F905F904F903F902F9008958C302E
:1010000069F160F4883009F459C28A3009F43FC2AA
:1010100061E472E0C1010E948307E5C1803209F4F6
:10102000ECC18034A9F76BE5C1010E944204F801CC
:10103000008111810115110509F4DAC1B101C8015E
:101040000E94AD07C8010E9473068C01892B09F428
:10105000CFC16CE2C1010E944204ECCFF801C08014
:10106000D180E280F380A7019601C701B6010E94FA
:1010700004118111CDCF20E030E0A901C701B601F4
:101080000E940411882379F0A7019601C701B601D7
:101090000E94A8129B01AC01C701B6010E94041175
:1010A000882309F4B5CF20E030E0A901C701B601DB
:1010B0000E94041187FF08C06DE2C1010E94420432
:1010C000F7FAF094F7F8F09420E836E948E15BE4A9
:1010D000C701B6010E94BC1387FD81C074E1A72E31
:1010E000B12C00E210E0188E1F8AF501E858FE4F7F
:1010F0002591359145915491C701B6010E94BC13C9
:1011000087FD13C0F501E85BFE4F259135914591B0
:101110005491C701B6010E946A116B017C012F89AD
:10112000388D200F311F388F2F8B1595079534E0A0
:10113000A31AB1088CEFA8168FEFB806B1F65524A4
:101140005A9420E030E0A901C701B6010E94BC1307
:1011500018160CF04BC02CEA35EC47E257E3C701F8
:10116000B6010E94041118160CF440C0A52DB4E07D
:10117000AB02C0011124B12CA12CFC01E05AFE4F9E
:101180003F019C0128583E4F49013FEF531671F132
:10119000F301EA0DFB1D2591359145915491C7014D
:1011A000B6010E94041187FF13C0F401EA0DFB1D74
:1011B0002591359145915491C701B6010E946A115C
:1011C0006B017C018F89988D801B910B988F8F8B81
:1011D000159507955A9494E0A91AB108D6CF00E264
:1011E00010E055E0552E188E1F8AABCFC701B6010F
:1011F0000E948D134B015C012B013C0106E080E451
:1012000092E4AFE0B0E0898F9A8FAB8FBC8F102F44
:1012100001509AE04916510461047104C8F0698DC7
:101220007A8D8B8D9C8D2AE030E040E050E00E946A
:101230005A12298F3A8F4B8F5C8FC301B2012AE07B
:1012400030E040E050E00E945A1229013A01DFCF1D
:10125000C501B4010E9409119B01AC01C701B6018F
:101260000E94A7126B017C01698D7A8D8B8D9C8DFC
:101270000E9409119B01AC01C701B6010E946A11CD
:101280002B013C010E948D136B017C010E9409110E
:101290009B01AC01C301B2010E94A7129B01AC01EA
:1012A0000E94A8120E948D13C60ED71EE81EF91EBA
:1012B000898D9A8DAB8DBC8DC816D906EA06FB06C2
:1012C000D8F09FEF891A990AA90AB90AAF89B88D8F
:1012D000AB2B39F1BAE08B169104A104B10408F1EB
:1012E000EF89F88D3196F88FEF8BC12CD12C7601D8
:1012F000812C912C540183942AE0422E512C612C94
:10130000712CC701B601A30192010E945A12672BEA
:10131000682B692B51F4111644F469017A011150BC
:10132000F0CFC12CD12C7601E7CFB501A401C101CA
:101330000E946C04112371F14E01F1E18F0E911C9A
:10134000012F54019AE0492E512C612C712C01502F
:1013500068F0C701B601A30192010E945A12605DB4
:10136000D4016E934D0169017A01F1CF812F90E094
:10137000BC0160957095F501E81BF90B31978EE281
:10138000808344275527461B570B6A0D7B1DC101DF
:101390000E945704EF89F88DEF2B29F165E6C10112
:1013A0000E9442040F89188D17FF07C06DE2C1012A
:1013B0000E944204119501951109FE0177969F0143
:1013C0008AE0E82EF12CC801B7010E948B12805DE3
:1013D00082938B01672BB9F7A9014E1B5F0BBF01ED
:1013E000C1010E945704D10112968D919C91EECDBE
:1013F0006DE5C1010E944204F6CF6BE7C1010E9476
:101400004204F801008111810115110559F1D8013B
:101410001696CC9016971796DC9062E2C1010E9456
:1014200042047601F70161917F01662321F0C10139
:101430000E948D07F7CF62E2C1010E9442046AE375
:10144000C1010E944204B101C8010E94AD07C80158
:101450000E9473068C01892B29F06CE2C1010E9465
:101460004204D2CF6DE7C5CF62E2C1010E944204BF
:101470008601E00EF11EE016F10639F0F8016191E7
:101480008F01C1010E948D07F6CF62E2B2CFCD90ED
:10149000DD90ED90FC90B701A601F7FE0BC06DE268
:1014A000C1010E94420444275527BA014C195D0925
:1014B0006E097F09C1010E946C0485CD4D915D913B
:1014C0006D917C91F7CF8C9166E472E0811102C03E
:1014D0006BE472E0C1010E94830775CD2F923F92A9
:1014E0004F925F926F927F928F929F92AF92BF9234
:1014F000CF92DF92EF92FF920F931F93CF93DF93E0
:10150000CDB7DEB7C252D4400FB6F894DEBF0FBEDF
:10151000CDBF80911602882309F458C061E081E3B1
:101520000E941C0261E08EE20E941C0261E08FE2D8
:101530000E941C0261E08CE20E941C0261E08DE2CC
:101540000E941C0261E08AE20E941C0261E08BE2C0
:101550000E941C0261E086E20E941C0261E088E2B7
:101560000E941C0261E089E20E941C0268EE73E0A6
:1015700080E090E00E94C80260E081E30E941C02CB
:1015800060E08EE20E941C0260E08FE20E941C027A
:1015900060E08CE20E941C0260E08DE20E941C026E
:1015A00060E08AE20E941C0260E08BE20E941C0262
:1015B00060E086E20E941C0260E088E20E941C0259
:1015C00060E089E20E941C0210921602CE010F9682
:1015D0009A8389839C838B8387EF93E08C0F9D1F75
:1015E0009E838D8398878F8319861E868E010F5F59
:1015F0001F4FA80161E572E08D5E93400E94A20634
:10160000BC0190E080E00E9431048AE0282E312C59
:10161000C12CD12C760146015701260137018AE3FE
:101620000E948602BC01990F880B990B0E940B1136
:101630009B01AC01C301B2010E94A8122B013C0125
:101640008BE30E948602BC01990F880B990B0E94C4
:101650000B119B01AC01C501B4010E94A8124B0102
:101660005C018CE30E948602BC01990F880B990BE8
:101670000E940B119B01AC01C701B6010E94A81288
:101680006B017C0191E0291A310849F6A80165E552
:1016900072E0CE010A960E94A2061C010097A1F1F9
:1016A000FC01848180788C60848320E030E040E21B
:1016B00051E4C301B2010E9414130E9486139B01DE
:1016C000770F440B550B2051314041095109A8ECCB
:1016D000B0E00E9447122CE730E040E050E00E946A
:1016E0002812CA01B90164567109810991090E9441
:1016F0000B1120E030E048EC52E40E941413F10199
:101700006083718382839383A80165E672E0CE01D2
:101710000A960E94A2063C010097A1F1FC01848177
:1017200080788C60848320E030E040E251E4C501A1
:10173000B4010E9414130E9486139B01770F440B7F
:10174000550B2650314041095109A8ECB0E00E94E8
:10175000471227E830E040E050E00E942812CA011A
:10176000B90164567109810991090E940B1120E0A9
:1017700030E048EC52E40E941413F301608371835B
:1017800082839383A80165E772E0CE010A960E94E6
:10179000A2065C010097A1F1FC01848180788C6035
:1017A000848320E030E040E251E4C701B6010E94AA
:1017B00014130E9486139B01770F440B550B29507D
:1017C000314041095109A8ECB0E00E9447122BE8D2
:1017D00030E040E050E00E942812CA01B90164568E
:1017E0007109810991090E940B1120E030E048EC59
:1017F00052E40E941413F501608371838283938302
:10180000809185030E94860220918F03309190037E
:10181000CC24DD24C21AD30A0D2C000CEE08FF08DC
:10182000032E000C440B550B2C193D094E095F0982
:10183000DC010E94521220E034E040E050E00E94BF
:101840002812C20ED31EE41EF51ED0928A03C09247
:101850008903C601D7FE04C0882799278C199D09E2
:1018600020918D0330918E038217930724F41092F8
:101870008A0310928903E0908903F0908A03A801FB
:1018800065E872E0CE010A960E94A206BC01C7017B
:101890000E943104809187030E94860220918F0369
:1018A00030919003CC24DD24C21AD30A0D2C000CF5
:1018B000EE08FF08032E000C440B550B2C193D09B4
:1018C0004E095F09DC010E94521220E034E040E042
:1018D00050E00E942812C20ED31EE41EF51ED092C4
:1018E0008C03C0928B03C601D7FE04C088279927BA
:1018F0008C199D0920918D0330918E0382179307D7
:1019000024F410928C0310928B03E0908B03F090E0
:101910008C03A80160E972E0CE010A960E94A2063B
:10192000BC01C7010E94310480E00E9486027C0154
:10193000A8016BE972E0CE010A960E94A206BC01E2
:10194000C7010E94310485E30E94F3017C01A801D4
:1019500069EA72E0CE010A960E94A206BC01C701A4
:101960000E94310483E30E94F3017C01A80161EB32
:1019700072E0CE010A960E94A206BC01C7010E9435
:10198000310480E30E94F3017C01A80168EB72E05E
:10199000CE010A960E94A206BC01C7010E94310432
:1019A00082E30E94F3017C01A80161EC72E0CE01A8
:1019B0000A960E94A206BC01C7010E94310484E37A
:1019C0000E94F3017C01A8016BEC72E0CE010A9643
:1019D0000E94A206BC01C7010E94310469EA72E0BC
:1019E000CE010A960E94F7060E94B80461E00197B2
:1019F00009F460E083E20E941C0261EB72E0CE0118
:101A00000A960E94F7060E94B80461E0019709F463
:101A100060E081E20E941C0268EB72E0CE010A964F
:101A20000E94F7060E94B80461E0019709F460E0A3
:101A30008FE10E941C0261EC72E0CE010A960E94C6
:101A4000F7060E94B80461E0019709F460E080E2C3
:101A50000E941C026BEC72E0CE010A960E94F7060F
:101A60000E94B80461E0019709F460E084E20E94FA
:101A70001C02C15EDB4F19830883CF51D44089EA31
:101A800092E0CF5DDB4F99838883C152D44060914F
:101A9000140270911502CE01815E9B4F0E94FF06D9
:101AA000882309F4C1C085EE92E0C950DC4F9983C8
:101AB0008883C75FD340C750DC4F19821882C95F43
:101AC000D340BE0169507C4FCE010A960E94AD07FB
:101AD00042E050E066ED72E085EE92E00E94FA028C
:101AE0006BEC72E0CE010A960E94F7060E94B804E1
:101AF00090930D0280930C0269EA72E0CE010A967F
:101B00000E94F7060E94B804909315028093140275
:101B100061EB72E0CE010A960E94F7060E94B804BB
:101B2000909313028093120268EB72E0CE010A9642
:101B30000E94F7060E94B80490931102809310024D
:101B400061EC72E0CE010A960E94F7060E94B8048A
:101B500090930F0280930E0265E872E0CE010A9620
:101B60000E94F7060E94B80490930B0280930A0229
:101B700060E972E0CE010A960E94F7060E94B8045E
:101B8000909309028093080265E572E0CE010A96FF
:101B90000E94F7060E94B804909307028093060201
:101BA00065E672E0CE010A960E94F7060E94B8042C
:101BB000909305028093040265E772E0CE010A96D5
:101BC0000E94F7060E94B8049093030280930202D9
:101BD0006BE972E0CE010A960E94F7060E94B804F3
:101BE000909301028093000264E670E080E090E050
:101BF0000E94C802CE5DDB4F0FB6F894DEBF0FBE69
:101C0000CDBFDF91CF911F910F91FF90EF90DF90AB
:101C1000CF90BF90AF909F908F907F906F905F908C
:101C20004F903F902F900895C55EDB4F1983088336
:101C3000CB51D44081EB92E0C35EDB4F9983888324
:101C4000CD51D4406091120270911302CE01855E95
:101C50009B4F0E94FF06811126CFC95EDB4F19837F
:101C60000883C751D44088EB92E0C75EDB4F99836D
:101C70008883C951D4406091100270911102CE0145
:101C8000895E9B4F0E94FF0681110DCFCD5EDB4F19
:101C900019830883C351D44081EC92E0CB5EDB4FC3
:101CA00099838883C551D44060910E0270910F02D0
:101CB000CE018D5E9B4F0E94FF068111F4CEC15F65
:101CC000DB4F19830883CF50D4408BEC92E0CF5E7A
:101CD000DB4F99838883C151D44060910C0270918D
:101CE0000D02CE01815F9B4F0E94FF068111DBCE6A
:101CF000C55FDB4F19830883CB50D44085E892E061
:101D0000C35FDB4F99838883CD50D44060910A0232
:101D100070910B02CE01855F9B4F0E94FF068111DF
:101D2000C2CEC95FDB4F19830883C750D44080E916
:101D300092E0C75FDB4F99838883C950D44060919C
:101D4000080270910902CE01895F9B4F0E94FF0635
:101D50008111A9CECD5FDB4F19830883C350D440D6
:101D600085E592E0CB5FDB4F99838883C550D440F3
:101D70006091060270910702CE018D5F9B4F0E9419
:101D8000FF06811190CEC150DC4F19830883CF5FCD
:101D9000D34085E692E0CF5FDB4F99838883C150C3
:101DA000D4406091040270910502CE0181509C4F95
:101DB0000E94FF06811177CEC550DC4F198308833E
:101DC000CB5FD34085E792E0C350DC4F9983888393
:101DD000CD5FD3406091020270910302CE01855025
:101DE0009C4F0E94FF0681115ECEC950DC4F1983C3
:101DF0000883C75FD3408BE992E0C750DC4F9983DB
:101E00008883C95FD3406091000270910102CE01C6
:101E100089509C4F0E94FF06882309F461CE43CE6F
:101E20001F920F920FB60F9211242F933F938F930F
:101E30009F93AF93BF938091DD029091DE02A091BA
:101E4000DF02B091E0023091DC0223E0230F2D3756
:101E500058F50196A11DB11D2093DC028093DD028F
:101E60009093DE02A093DF02B093E0028091E10242
:101E70009091E202A091E302B091E4020196A11DCB
:101E8000B11D8093E1029093E202A093E302B0932C
:101E9000E402BF91AF919F918F913F912F910F904D
:101EA0000FBE0F901F90189526E8230F0296A11DD4
:101EB000B11DD2CF1F920F920FB60F9211240BB605
:101EC0000F922F933F934F935F936F937F938F93D3
:101ED0009F93AF93BF93EF93FF9385EE92E00E94A1
:101EE0006E03FF91EF91BF91AF919F918F917F9181
:101EF0006F915F914F913F912F910F900BBE0F907B
:101F00000FBE0F901F9018951F920F920FB60F9251
:101F100011240BB60F922F938F939F93EF93FF9300
:101F2000E091F502F091F6028081E091FB02F091E0
:101F3000FC0282FD1DC090818091FE028F5F8F7335
:101F40002091FF02821741F0E091FE02F0E0EB5198
:101F5000FD4F958F8093FE02FF91EF919F918F919E
:101F60002F910F900BBE0F900FBE0F901F901895E2
:101F70008081F2CFCF93DF93E5EEF2E013821282FD
:101F800088EE93E0A0E0B0E084839583A683B783D6
:101F90008BE192E09183808385EC90E09587848744
:101FA00084EC90E09787868780EC90E0918B808B23
:101FB00081EC90E0938B828B82EC90E0958B848B0C
:101FC00086EC90E0978B868B118E128E138E148E7A
:101FD000C5E8D3E086E390E09983888387E390E0C7
:101FE0009B838A831D821C821F821E8285E090E073
:101FF0009987888784E690E09B878A8760E086E3FC
:102000000E944A0260E08A810E944A02C2E8D3E04C
:1020100087E090E0998388831A8261E00E944A02F7
:102020006A818881DF91CF910C941C02789484B5E9
:10203000826084BD84B5816084BD85B5826085BDC4
:1020400085B5816085BD80916E00816080936E0052
:102050001092810080918100826080938100809144
:1020600081008160809381008091800081608093F5
:1020700080008091B10084608093B1008091B000B5
:1020800081608093B0008091910082608093910084
:102090008091910081608093910080919000816097
:1020A000809390008091A10082608093A100809134
:1020B000A10081608093A1008091A0008160809345
:1020C000A0008091210182608093210180912101F3
:1020D00081608093210180912001816080932001A3
:1020E00080917A00846080937A0080917A00826087
:1020F00080937A0080917A00816080937A00809149
:102100007A00806880937A001092C100E091F50215
:10211000F091F60282E08083E091F102F091F20208
:102120001082E091F302F091F4028FEC8083109220
:10213000FD02E091F902F091FA0286E08083E091DD
:10214000F702F091F802808180618083E091F702CC
:10215000F091F802808188608083E091F702F0912D
:10216000F802808180688083E091F702F091F802A4
:1021700080818F7D808361E084E20E944A0261E079
:1021800083E20E944A0261E082E20E944A0261E028
:1021900081E20E944A0261E080E20E944A0261E01C
:1021A0008FE10E944A0261E081E30E944A0261E0FD
:1021B0008EE20E944A0261E08FE20E944A0261E0E0
:1021C0008CE20E944A0261E08DE20E944A0261E0D4
:1021D0008AE20E944A0261E08BE20E944A0261E0C8
:1021E00086E20E944A0261E088E20E944A0261E0BF
:1021F00089E20E944A0262E086E10E944A020E944D
:102200006E0A0E940104FBCF0E94461108F481E08F
:102210000895E89409C097FB3EF4909580957095D9
:1022200061957F4F8F4F9F4F9923A9F0F92F96E922
:10223000BB279395F695879577956795B795F11197
:10224000F8CFFAF4BB0F11F460FF1BC06F5F7F4F34
:102250008F4F9F4F16C0882311F096E911C0772346
:1022600021F09EE8872F762F05C0662371F096E84F
:10227000862F70E060E02AF09A95660F771F881F1E
:10228000DAF7880F9695879597F90895990F0008C2
:10229000550FAA0BE0E8FEEF16161706E807F90738
:1022A000C0F012161306E407F50798F0621B730BD3
:1022B000840B950B39F40A2661F0232B242B252B54
:1022C00021F408950A2609F4A140A6958FEF811DF7
:1022D000811D08950E947D110C94EE110E94E01161
:1022E00038F00E94E71120F0952311F00C94D711DB
:1022F0000C94DD1111240C9422120E94FF1170F332
:10230000959FC1F3950F50E0551F629FF001729F9A
:10231000BB27F00DB11D639FAA27F00DB11DAA1FA9
:10232000649F6627B00DA11D661F829F2227B00DF6
:10233000A11D621F739FB00DA11D621F839FA00D81
:10234000611D221F749F3327A00D611D231F849FD1
:10235000600D211D822F762F6A2F11249F57504028
:102360009AF0F1F088234AF0EE0FFF1FBB1F661FA3
:10237000771F881F91505040A9F79E3F510580F06C
:102380000C94D7110C9422125F3FE4F3983ED4F3DF
:10239000869577956795B795F795E7959F5FC1F710
:1023A000FE2B880F911D9695879597F9089597F9BB
:1023B0009F6780E870E060E008959FEF80EC0895EB
:1023C00000240A9416161706180609060895002414
:1023D0000A9412161306140605060895092E03948E
:1023E000000C11F4882352F0BB0F40F4BF2B11F402
:1023F00060FF04C06F5F7F4F8F4F9F4F089557FD61
:102400009058440F551F59F05F3F71F04795880F62
:1024100097FB991F61F09F3F79F0879508951216F9
:1024200013061406551FF2CF4695F1DF08C01616A5
:1024300017061806991FF1CF869571056105089456
:102440000895E894BB2766277727CB0197F908956D
:10245000052E97FB1EF400940E943F1257FD07D0F3
:102460000E945A1207FC03D04EF40C943F12509570
:102470004095309521953F4F4F4F5F4F0895909570
:102480008095709561957F4F8F4F9F4F08950E9463
:102490007C12A59F900DB49F900DA49F800D911D5F
:1024A00011240895B7FF0C9447120E944712821B13
:1024B000930B0895A1E21A2EAA1BBB1BFD010DC0B0
:1024C000AA1FBB1FEE1FFF1FA217B307E407F507E4
:1024D00020F0A21BB30BE40BF50B661F771F881FC0
:1024E000991F1A9469F760957095809590959B0156
:1024F000AC01BD01CF010895A29FB001B39FC001FF
:10250000A39F700D811D1124911DB29F700D811D1F
:102510001124911D0895AA1BBB1B51E107C0AA1FDE
:10252000BB1FA617B70710F0A61BB70B881F991F74
:102530005A95A9F780959095BC01CD010895EE0FAD
:10254000FF1F881F8BBF0790F691E02D19945058FC
:10255000BB27AA270E94BF120C94EE110E94E01123
:1025600038F00E94E71120F039F49F3F19F426F467
:102570000C94DD110EF4E095E7FB0C94D711E92FD4
:102580000E94FF1158F3BA17620773078407950773
:1025900020F079F4A6F50C9421120EF4E0950B2EA0
:1025A000BA2FA02D0B01B90190010C01CA01A001A5
:1025B0001124FF27591B99F0593F50F4503E68F100
:1025C0001A16F040A22F232F342F4427585FF3CF41
:1025D000469537952795A795F0405395C9F77EF412
:1025E0001F16BA0B620B730B840BBAF09150A1F05B
:1025F000FF0FBB1F661F771F881FC2F70EC0BA0FE1
:10260000621F731F841F48F4879577956795B79568
:10261000F7959E3F08F0B0CF9395880F08F0992763
:10262000EE0F9795879508950E9428130C94EE114C
:102630000E94E71158F00E94E01140F029F45F3F3A
:1026400029F00C94D71151110C9422120C94DD1125
:102650000E94FF1168F39923B1F3552391F3951B61
:10266000550BBB27AA2762177307840738F09F5FB3
:102670005F4F220F331F441FAA1FA9F335D00E2E20
:102680003AF0E0E832D091505040E695001CCAF78D
:102690002BD0FE2F29D0660F771F881FBB1F261750
:1026A00037074807AB07B0E809F0BB0B802DBF0127
:1026B000FF2793585F4F3AF09E3F510578F00C94F6
:1026C000D7110C9422125F3FE4F3983ED4F3869521
:1026D00077956795B795F7959F5FC9F7880F911D17
:1026E0009695879597F90895E1E0660F771F881F03
:1026F000BB1F621773078407BA0720F0621B730BB6
:10270000840BBA0BEE1F88F7E09508950E948D1395
:102710006894B1110C94221208950E94071288F057
:102720009F5798F0B92F9927B751B0F0E1F0660F95
:10273000771F881F991F1AF0BA95C9F714C0B130D6
:1027400091F00E942112B1E008950C942112672F9C
:10275000782F8827B85F39F0B93FCCF38695779505
:102760006795B395D9F73EF49095809570956195EE
:102770007F4F8F4F9F4F08950E94461108F48FEFAF
:102780000895FB01DC018D91019080190110D9F3AE
:08279000990B0895F894FFCFA6
:102798000100010001000100010001000100010029
:1027A80001000100010001000000009003FA022767
:1027B80003DD03580336034A032F2F22225C5C6291
:1027C80008660C6E0A720D7409005C753030303082
:1027D800006E756C6C00747275650066616C73656B
:1027E800006C656400616363656C65726F6D657428
:1027F80065725F5800616363656C65726F6D6574BF
:1028080065725F5900616363656C65726F6D6574AD
:1028180065725F5A006A6F79737469636B5F5800F9
:102828006A6F79737469636B5F5900706F74656E52
:1028380074696F6D657465720062746E5F313830EB
:102848000062746E5F75700062746E5F6C656674AA
:102858000062746E5F72696768740062746E5F7399
:0A286800656C656374000D0A000042
:00000001FF
